{
  "_format": "hh-sol-artifact-1",
  "contractName": "VinDecode",
  "sourceName": "contracts/VinDecode.sol",
  "abi": [
    {
      "inputs": [
        {
          "internalType": "bool",
          "name": "_isTestEnvironment",
          "type": "bool"
        }
      ],
      "stateMutability": "nonpayable",
      "type": "constructor"
    },
    {
      "anonymous": false,
      "inputs": [
        {
          "indexed": false,
          "internalType": "string",
          "name": "vin",
          "type": "string"
        },
        {
          "indexed": false,
          "internalType": "string",
          "name": "description",
          "type": "string"
        },
        {
          "indexed": false,
          "internalType": "string[]",
          "name": "images",
          "type": "string[]"
        }
      ],
      "name": "AccidentAdded",
      "type": "event"
    },
    {
      "anonymous": false,
      "inputs": [
        {
          "indexed": false,
          "internalType": "string",
          "name": "vin",
          "type": "string"
        },
        {
          "indexed": false,
          "internalType": "string",
          "name": "brand",
          "type": "string"
        },
        {
          "indexed": false,
          "internalType": "string",
          "name": "model",
          "type": "string"
        },
        {
          "indexed": false,
          "internalType": "uint256",
          "name": "year",
          "type": "uint256"
        },
        {
          "indexed": false,
          "internalType": "string",
          "name": "fuelType",
          "type": "string"
        },
        {
          "indexed": false,
          "internalType": "string",
          "name": "transmissionType",
          "type": "string"
        },
        {
          "indexed": false,
          "internalType": "string",
          "name": "color",
          "type": "string"
        },
        {
          "indexed": false,
          "internalType": "string",
          "name": "configuration",
          "type": "string"
        },
        {
          "indexed": false,
          "internalType": "string",
          "name": "country",
          "type": "string"
        },
        {
          "indexed": false,
          "internalType": "address",
          "name": "owner",
          "type": "address"
        }
      ],
      "name": "CarAdded",
      "type": "event"
    },
    {
      "anonymous": false,
      "inputs": [
        {
          "indexed": false,
          "internalType": "string",
          "name": "vin",
          "type": "string"
        },
        {
          "indexed": false,
          "internalType": "string",
          "name": "location",
          "type": "string"
        }
      ],
      "name": "CarReportedFound",
      "type": "event"
    },
    {
      "anonymous": false,
      "inputs": [
        {
          "indexed": false,
          "internalType": "string",
          "name": "vin",
          "type": "string"
        },
        {
          "indexed": false,
          "internalType": "string",
          "name": "location",
          "type": "string"
        }
      ],
      "name": "CarReportedStolen",
      "type": "event"
    },
    {
      "anonymous": false,
      "inputs": [
        {
          "indexed": false,
          "internalType": "address",
          "name": "dealer",
          "type": "address"
        }
      ],
      "name": "DealerAdded",
      "type": "event"
    },
    {
      "anonymous": false,
      "inputs": [
        {
          "indexed": false,
          "internalType": "string",
          "name": "vin",
          "type": "string"
        },
        {
          "indexed": false,
          "internalType": "uint256",
          "name": "index",
          "type": "uint256"
        }
      ],
      "name": "FinePaid",
      "type": "event"
    },
    {
      "anonymous": false,
      "inputs": [
        {
          "indexed": false,
          "internalType": "string",
          "name": "vin",
          "type": "string"
        },
        {
          "indexed": false,
          "internalType": "string[]",
          "name": "description",
          "type": "string[]"
        },
        {
          "indexed": false,
          "internalType": "uint256[]",
          "name": "amount",
          "type": "uint256[]"
        }
      ],
      "name": "FinesAdded",
      "type": "event"
    },
    {
      "anonymous": false,
      "inputs": [
        {
          "indexed": false,
          "internalType": "address",
          "name": "insuranceCompany",
          "type": "address"
        }
      ],
      "name": "InsuranceCompanyAdded",
      "type": "event"
    },
    {
      "anonymous": false,
      "inputs": [
        {
          "indexed": false,
          "internalType": "string",
          "name": "vin",
          "type": "string"
        },
        {
          "indexed": false,
          "internalType": "address",
          "name": "newOwner",
          "type": "address"
        }
      ],
      "name": "NewOwnerAdded",
      "type": "event"
    },
    {
      "anonymous": false,
      "inputs": [
        {
          "indexed": false,
          "internalType": "string",
          "name": "vin",
          "type": "string"
        },
        {
          "indexed": false,
          "internalType": "string",
          "name": "newPlateNumber",
          "type": "string"
        }
      ],
      "name": "PlateChanged",
      "type": "event"
    },
    {
      "anonymous": false,
      "inputs": [
        {
          "indexed": false,
          "internalType": "string",
          "name": "vin",
          "type": "string"
        },
        {
          "components": [
            {
              "internalType": "string",
              "name": "brand",
              "type": "string"
            },
            {
              "internalType": "string",
              "name": "model",
              "type": "string"
            },
            {
              "internalType": "uint256",
              "name": "year",
              "type": "uint256"
            },
            {
              "internalType": "string",
              "name": "fuelType",
              "type": "string"
            },
            {
              "internalType": "string",
              "name": "transmissionType",
              "type": "string"
            },
            {
              "internalType": "string",
              "name": "color",
              "type": "string"
            },
            {
              "internalType": "string",
              "name": "configuration",
              "type": "string"
            },
            {
              "internalType": "string",
              "name": "country",
              "type": "string"
            },
            {
              "internalType": "string[]",
              "name": "plateNumbers",
              "type": "string[]"
            },
            {
              "internalType": "uint256",
              "name": "mileage",
              "type": "uint256"
            },
            {
              "internalType": "address[]",
              "name": "owners",
              "type": "address[]"
            },
            {
              "components": [
                {
                  "internalType": "uint256",
                  "name": "date",
                  "type": "uint256"
                },
                {
                  "internalType": "string",
                  "name": "description",
                  "type": "string"
                },
                {
                  "internalType": "uint256",
                  "name": "amount",
                  "type": "uint256"
                },
                {
                  "internalType": "bool",
                  "name": "paid",
                  "type": "bool"
                }
              ],
              "internalType": "struct CarTypes.Fine[]",
              "name": "fines",
              "type": "tuple[]"
            },
            {
              "components": [
                {
                  "internalType": "uint256",
                  "name": "date",
                  "type": "uint256"
                },
                {
                  "internalType": "uint256",
                  "name": "mileage",
                  "type": "uint256"
                },
                {
                  "internalType": "string[]",
                  "name": "works",
                  "type": "string[]"
                }
              ],
              "internalType": "struct CarTypes.ServiceWork[]",
              "name": "serviceHistory",
              "type": "tuple[]"
            },
            {
              "components": [
                {
                  "internalType": "uint256",
                  "name": "date",
                  "type": "uint256"
                },
                {
                  "internalType": "string",
                  "name": "description",
                  "type": "string"
                },
                {
                  "internalType": "string[]",
                  "name": "images",
                  "type": "string[]"
                }
              ],
              "internalType": "struct CarTypes.Accident[]",
              "name": "accidents",
              "type": "tuple[]"
            },
            {
              "components": [
                {
                  "internalType": "uint256",
                  "name": "date",
                  "type": "uint256"
                },
                {
                  "internalType": "bool",
                  "name": "isStolen",
                  "type": "bool"
                },
                {
                  "internalType": "string",
                  "name": "location",
                  "type": "string"
                }
              ],
              "internalType": "struct CarTypes.Theft[]",
              "name": "theftHistory",
              "type": "tuple[]"
            }
          ],
          "indexed": false,
          "internalType": "struct CarTypes.Car",
          "name": "car",
          "type": "tuple"
        }
      ],
      "name": "ReportPurchased",
      "type": "event"
    },
    {
      "anonymous": false,
      "inputs": [
        {
          "indexed": false,
          "internalType": "string",
          "name": "vin",
          "type": "string"
        },
        {
          "indexed": false,
          "internalType": "uint256",
          "name": "mileage",
          "type": "uint256"
        },
        {
          "indexed": false,
          "internalType": "string[]",
          "name": "serviceWorks",
          "type": "string[]"
        }
      ],
      "name": "ServiceHistoryUpdated",
      "type": "event"
    },
    {
      "anonymous": false,
      "inputs": [
        {
          "indexed": false,
          "internalType": "address",
          "name": "trafficPolice",
          "type": "address"
        }
      ],
      "name": "TrafficPoliceAdded",
      "type": "event"
    },
    {
      "inputs": [],
      "name": "ACTIVATE_SUPER_USER",
      "outputs": [],
      "stateMutability": "nonpayable",
      "type": "function"
    },
    {
      "inputs": [
        {
          "internalType": "string",
          "name": "vin",
          "type": "string"
        },
        {
          "internalType": "string",
          "name": "description",
          "type": "string"
        },
        {
          "internalType": "string[]",
          "name": "images",
          "type": "string[]"
        }
      ],
      "name": "addAccident",
      "outputs": [],
      "stateMutability": "nonpayable",
      "type": "function"
    },
    {
      "inputs": [
        {
          "internalType": "string",
          "name": "vin",
          "type": "string"
        },
        {
          "internalType": "string",
          "name": "brand",
          "type": "string"
        },
        {
          "internalType": "string",
          "name": "model",
          "type": "string"
        },
        {
          "internalType": "uint256",
          "name": "year",
          "type": "uint256"
        },
        {
          "internalType": "string",
          "name": "fuelType",
          "type": "string"
        },
        {
          "internalType": "string",
          "name": "transmissionType",
          "type": "string"
        },
        {
          "internalType": "string",
          "name": "color",
          "type": "string"
        },
        {
          "internalType": "string",
          "name": "configuration",
          "type": "string"
        },
        {
          "internalType": "string",
          "name": "country",
          "type": "string"
        },
        {
          "internalType": "address",
          "name": "owner",
          "type": "address"
        }
      ],
      "name": "addCar",
      "outputs": [],
      "stateMutability": "nonpayable",
      "type": "function"
    },
    {
      "inputs": [
        {
          "internalType": "address",
          "name": "dealer",
          "type": "address"
        }
      ],
      "name": "addDealer",
      "outputs": [],
      "stateMutability": "nonpayable",
      "type": "function"
    },
    {
      "inputs": [
        {
          "internalType": "string",
          "name": "vin",
          "type": "string"
        },
        {
          "internalType": "string[]",
          "name": "descriptions",
          "type": "string[]"
        },
        {
          "internalType": "uint256[]",
          "name": "amounts",
          "type": "uint256[]"
        }
      ],
      "name": "addFines",
      "outputs": [],
      "stateMutability": "nonpayable",
      "type": "function"
    },
    {
      "inputs": [
        {
          "internalType": "address",
          "name": "insuranceCompany",
          "type": "address"
        }
      ],
      "name": "addInsuranceCompany",
      "outputs": [],
      "stateMutability": "nonpayable",
      "type": "function"
    },
    {
      "inputs": [
        {
          "internalType": "string",
          "name": "vin",
          "type": "string"
        },
        {
          "internalType": "address",
          "name": "newOwner",
          "type": "address"
        }
      ],
      "name": "addNewOwner",
      "outputs": [],
      "stateMutability": "nonpayable",
      "type": "function"
    },
    {
      "inputs": [
        {
          "internalType": "string",
          "name": "vin",
          "type": "string"
        },
        {
          "internalType": "uint256",
          "name": "mileage",
          "type": "uint256"
        },
        {
          "internalType": "string[]",
          "name": "serviceWorks",
          "type": "string[]"
        }
      ],
      "name": "addServiceHistory",
      "outputs": [],
      "stateMutability": "nonpayable",
      "type": "function"
    },
    {
      "inputs": [
        {
          "internalType": "address",
          "name": "trafficPolice",
          "type": "address"
        }
      ],
      "name": "addTrafficPolice",
      "outputs": [],
      "stateMutability": "nonpayable",
      "type": "function"
    },
    {
      "inputs": [
        {
          "internalType": "string",
          "name": "vin",
          "type": "string"
        }
      ],
      "name": "buyReport",
      "outputs": [],
      "stateMutability": "payable",
      "type": "function"
    },
    {
      "inputs": [
        {
          "internalType": "string",
          "name": "vin",
          "type": "string"
        },
        {
          "internalType": "string",
          "name": "newPlateNumber",
          "type": "string"
        }
      ],
      "name": "changePlate",
      "outputs": [],
      "stateMutability": "nonpayable",
      "type": "function"
    },
    {
      "inputs": [
        {
          "internalType": "string",
          "name": "vin",
          "type": "string"
        }
      ],
      "name": "getCarInfo",
      "outputs": [
        {
          "components": [
            {
              "internalType": "string",
              "name": "brand",
              "type": "string"
            },
            {
              "internalType": "string",
              "name": "model",
              "type": "string"
            },
            {
              "internalType": "uint256",
              "name": "year",
              "type": "uint256"
            },
            {
              "internalType": "string",
              "name": "fuelType",
              "type": "string"
            },
            {
              "internalType": "string",
              "name": "transmissionType",
              "type": "string"
            },
            {
              "internalType": "string",
              "name": "color",
              "type": "string"
            },
            {
              "internalType": "string",
              "name": "configuration",
              "type": "string"
            },
            {
              "internalType": "string",
              "name": "country",
              "type": "string"
            },
            {
              "internalType": "string[]",
              "name": "plateNumbers",
              "type": "string[]"
            },
            {
              "internalType": "uint256",
              "name": "mileage",
              "type": "uint256"
            },
            {
              "internalType": "address[]",
              "name": "owners",
              "type": "address[]"
            },
            {
              "components": [
                {
                  "internalType": "uint256",
                  "name": "date",
                  "type": "uint256"
                },
                {
                  "internalType": "string",
                  "name": "description",
                  "type": "string"
                },
                {
                  "internalType": "uint256",
                  "name": "amount",
                  "type": "uint256"
                },
                {
                  "internalType": "bool",
                  "name": "paid",
                  "type": "bool"
                }
              ],
              "internalType": "struct CarTypes.Fine[]",
              "name": "fines",
              "type": "tuple[]"
            },
            {
              "components": [
                {
                  "internalType": "uint256",
                  "name": "date",
                  "type": "uint256"
                },
                {
                  "internalType": "uint256",
                  "name": "mileage",
                  "type": "uint256"
                },
                {
                  "internalType": "string[]",
                  "name": "works",
                  "type": "string[]"
                }
              ],
              "internalType": "struct CarTypes.ServiceWork[]",
              "name": "serviceHistory",
              "type": "tuple[]"
            },
            {
              "components": [
                {
                  "internalType": "uint256",
                  "name": "date",
                  "type": "uint256"
                },
                {
                  "internalType": "string",
                  "name": "description",
                  "type": "string"
                },
                {
                  "internalType": "string[]",
                  "name": "images",
                  "type": "string[]"
                }
              ],
              "internalType": "struct CarTypes.Accident[]",
              "name": "accidents",
              "type": "tuple[]"
            },
            {
              "components": [
                {
                  "internalType": "uint256",
                  "name": "date",
                  "type": "uint256"
                },
                {
                  "internalType": "bool",
                  "name": "isStolen",
                  "type": "bool"
                },
                {
                  "internalType": "string",
                  "name": "location",
                  "type": "string"
                }
              ],
              "internalType": "struct CarTypes.Theft[]",
              "name": "theftHistory",
              "type": "tuple[]"
            }
          ],
          "internalType": "struct CarTypes.Car",
          "name": "",
          "type": "tuple"
        }
      ],
      "stateMutability": "view",
      "type": "function"
    },
    {
      "inputs": [
        {
          "internalType": "string",
          "name": "vin",
          "type": "string"
        }
      ],
      "name": "isCarExists",
      "outputs": [
        {
          "internalType": "bool",
          "name": "",
          "type": "bool"
        }
      ],
      "stateMutability": "view",
      "type": "function"
    },
    {
      "inputs": [
        {
          "internalType": "string",
          "name": "vin",
          "type": "string"
        }
      ],
      "name": "isCarStolen",
      "outputs": [
        {
          "internalType": "bool",
          "name": "",
          "type": "bool"
        }
      ],
      "stateMutability": "view",
      "type": "function"
    },
    {
      "inputs": [
        {
          "internalType": "address",
          "name": "",
          "type": "address"
        }
      ],
      "name": "isDealer",
      "outputs": [
        {
          "internalType": "bool",
          "name": "",
          "type": "bool"
        }
      ],
      "stateMutability": "view",
      "type": "function"
    },
    {
      "inputs": [
        {
          "internalType": "address",
          "name": "",
          "type": "address"
        }
      ],
      "name": "isInsuranceCompany",
      "outputs": [
        {
          "internalType": "bool",
          "name": "",
          "type": "bool"
        }
      ],
      "stateMutability": "view",
      "type": "function"
    },
    {
      "inputs": [],
      "name": "isTestEnvironment",
      "outputs": [
        {
          "internalType": "bool",
          "name": "",
          "type": "bool"
        }
      ],
      "stateMutability": "view",
      "type": "function"
    },
    {
      "inputs": [
        {
          "internalType": "address",
          "name": "",
          "type": "address"
        }
      ],
      "name": "isTrafficPolice",
      "outputs": [
        {
          "internalType": "bool",
          "name": "",
          "type": "bool"
        }
      ],
      "stateMutability": "view",
      "type": "function"
    },
    {
      "inputs": [
        {
          "internalType": "string",
          "name": "vin",
          "type": "string"
        },
        {
          "internalType": "uint256",
          "name": "fineIndex",
          "type": "uint256"
        }
      ],
      "name": "markAsPaid",
      "outputs": [],
      "stateMutability": "nonpayable",
      "type": "function"
    },
    {
      "inputs": [
        {
          "internalType": "string",
          "name": "vin",
          "type": "string"
        },
        {
          "internalType": "uint256",
          "name": "fineIndex",
          "type": "uint256"
        }
      ],
      "name": "payFine",
      "outputs": [],
      "stateMutability": "payable",
      "type": "function"
    },
    {
      "inputs": [
        {
          "internalType": "string",
          "name": "vin",
          "type": "string"
        },
        {
          "internalType": "string",
          "name": "location",
          "type": "string"
        },
        {
          "internalType": "bool",
          "name": "isStolen",
          "type": "bool"
        }
      ],
      "name": "reportThieftState",
      "outputs": [],
      "stateMutability": "nonpayable",
      "type": "function"
    },
    {
      "inputs": [],
      "name": "state",
      "outputs": [
        {
          "internalType": "address payable",
          "name": "",
          "type": "address"
        }
      ],
      "stateMutability": "view",
      "type": "function"
    }
  ],
  "bytecode": "0x60806040523480156200001157600080fd5b506040516200442738038062004427833981016040819052620000349162000095565b6005805491151560ff19928316179055600180546001600160a01b03191633908117825560009081526002602090815260408083208054861685179055600382528083208054861685179055600490915290208054909216179055620000c0565b600060208284031215620000a857600080fd5b81518015158114620000b957600080fd5b9392505050565b61435780620000d06000396000f3fe6080604052600436106101355760003560e01c8063aed22c85116100ab578063c19d93fb1161006f578063c19d93fb14610359578063d2fd921014610391578063d9198c92146103b1578063e2e46c3d146103d1578063f0661a64146103eb578063fe2e81d41461040b57600080fd5b8063aed22c85146102b7578063b5f56528146102d7578063b6202857146102ec578063ba7985261461030c578063bed439bd1461032c57600080fd5b806368da02e6116100fd57806368da02e6146101f45780636a7a5556146102075780636de198151461022757806375ad0c5c146102475780637d7ddf67146102675780638ece4f161461028757600080fd5b806306d6cb761461013a578063179173c61461015c57806326f72ae81461017c57806327da2a21146101c15780633fca8a0c146101d4575b600080fd5b34801561014657600080fd5b5061015a610155366004612e86565b61043b565b005b34801561016857600080fd5b5061015a610177366004612f5d565b610529565b34801561018857600080fd5b506101ac610197366004612e86565b60036020526000908152604090205460ff1681565b60405190151581526020015b60405180910390f35b61015a6101cf366004612fc0565b6107b2565b3480156101e057600080fd5b5061015a6101ef3660046130b6565b610a6b565b61015a61020236600461313d565b610c8c565b34801561021357600080fd5b506101ac61022236600461313d565b610de2565b34801561023357600080fd5b5061015a610242366004613179565b610ed9565b34801561025357600080fd5b5061015a6102623660046131f5565b6110ed565b34801561027357600080fd5b5061015a610282366004613350565b611596565b34801561029357600080fd5b506101ac6102a2366004612e86565b60046020526000908152604090205460ff1681565b3480156102c357600080fd5b5061015a6102d2366004612e86565b61186a565b3480156102e357600080fd5b5061015a611951565b3480156102f857600080fd5b506101ac61030736600461313d565b611a8b565b34801561031857600080fd5b5061015a61032736600461342d565b611afe565b34801561033857600080fd5b5061034c61034736600461313d565b611cd0565b6040516101b8919061372a565b34801561036557600080fd5b50600154610379906001600160a01b031681565b6040516001600160a01b0390911681526020016101b8565b34801561039d57600080fd5b5061015a6103ac366004612fc0565b612919565b3480156103bd57600080fd5b5061015a6103cc3660046138d4565b612aee565b3480156103dd57600080fd5b506005546101ac9060ff1681565b3480156103f757600080fd5b5061015a610406366004612e86565b612cbe565b34801561041757600080fd5b506101ac610426366004612e86565b60026020526000908152604090205460ff1681565b6001546001600160a01b0316331461046e5760405162461bcd60e51b815260040161046590613921565b60405180910390fd5b6001600160a01b03811660009081526002602052604090205460ff16156104ce5760405162461bcd60e51b81526020600482015260146024820152731119585b195c88185b1c9958591e48185919195960621b6044820152606401610465565b6001600160a01b038116600081815260026020908152604091829020805460ff1916600117905590519182527f98f3b9743e04ddffc992c14d8217e2d0467e51bbec660a88b2c756e6eebc4e6491015b60405180910390a150565b3360009081526004602052604090205460ff166105585760405162461bcd60e51b815260040161046590613967565b816000808260405161056a91906139b1565b908152604051908190036020019020600a01541161059a5760405162461bcd60e51b8152600401610465906139cd565b60008251116105eb5760405162461bcd60e51b815260206004820152601c60248201527f506c617465206e756d6265722063616e6e6f7420626520656d707479000000006044820152606401610465565b600080846040516105fc91906139b1565b908152604051908190036020019020600801541115610735578160405160200161062691906139b1565b6040516020818303038152906040528051906020012060008460405161064c91906139b1565b9081526020016040518091039020600801600160008660405161066f91906139b1565b9081526040519081900360200190206008015461068c9190613a18565b8154811061069c5761069c613a31565b906000526020600020016040516020016106b69190613a7b565b60405160208183030381529060405280519060200120036107355760405162461bcd60e51b815260206004820152603360248201527f4e657720706c617465206e756d626572206d75737420626520646966666572656044820152726e742066726f6d20746865206f6c64206f6e6560681b6064820152608401610465565b60008360405161074591906139b1565b9081526040516020918190038201902060080180546001810182556000918252919020016107738382613b40565b507fb0b8d69552c13337173fe252d122aaade330aa03392809926814feb887c1304583836040516107a5929190613bff565b60405180910390a1505050565b81600080826040516107c491906139b1565b908152604051908190036020019020600a0154116107f45760405162461bcd60e51b8152600401610465906139cd565b60008360405161080491906139b1565b9081526020016040518091039020600b01828154811061082657610826613a31565b90600052602060002090600402016002015434146108865760405162461bcd60e51b815260206004820181905260248201527f4e6f7420656e6f756768206d6f6e657920746f20706179207468652066696e656044820152606401610465565b60008360405161089691906139b1565b908152604051908190036020019020600b015482106108c75760405162461bcd60e51b815260040161046590613c2d565b6000836040516108d791906139b1565b9081526020016040518091039020600b0182815481106108f9576108f9613a31565b600091825260209091206003600490920201015460ff161561095d5760405162461bcd60e51b815260206004820152601a60248201527f46696e652068617320616c7265616479206265656e20706169640000000000006044820152606401610465565b6001546040516000916001600160a01b03169034908381818185875af1925050503d80600081146109aa576040519150601f19603f3d011682016040523d82523d6000602084013e6109af565b606091505b50509050806109d05760405162461bcd60e51b815260040161046590613c70565b60016000856040516109e291906139b1565b9081526020016040518091039020600b018481548110610a0457610a04613a31565b906000526020600020906004020160030160006101000a81548160ff0219169083151502179055507fadfb6559168451e721d191976caf5a897c0e0e8057819f67efa8ec08a857988a8484604051610a5d929190613cb8565b60405180910390a150505050565b3360009081526003602052604090205460ff16610ae05760405162461bcd60e51b815260206004820152602d60248201527f4f6e6c7920696e737572616e636520636f6d70616e792063616e2063616c6c2060448201526c3a3434b990333ab731ba34b7b760991b6064820152608401610465565b8260008082604051610af291906139b1565b908152604051908190036020019020600a015411610b225760405162461bcd60e51b8152600401610465906139cd565b6000835111610b735760405162461bcd60e51b815260206004820152601b60248201527f4465736372697074696f6e2063616e6e6f7420626520656d70747900000000006044820152606401610465565b6000825111610bbd5760405162461bcd60e51b8152602060048201526016602482015275496d616765732063616e6e6f7420626520656d70747960501b6044820152606401610465565b60408051606081018252428152602081018590528082018490529051600090610be79087906139b1565b90815260405160209181900382019020600d01805460018082018355600092835291839020845160039092020190815591830151839291820190610c2b9082613b40565b5060408201518051610c47916002840191602090910190612da5565b5050507f648861ce1b472f9ad4cf59ebb8bb04d368cf1f9906fc60bac6a1f03a5c81ea26858585604051610c7d93929190613cda565b60405180910390a15050505050565b8060008082604051610c9e91906139b1565b908152604051908190036020019020600a015411610cce5760405162461bcd60e51b8152600401610465906139cd565b34662386f26fc1000014610d245760405162461bcd60e51b815260206004820152601e60248201527f4e6f7420656e6f756768206d6f6e657920746f20627579207265706f727400006044820152606401610465565b6001546040516000916001600160a01b03169034908381818185875af1925050503d8060008114610d71576040519150601f19603f3d011682016040523d82523d6000602084013e610d76565b606091505b5050905080610d975760405162461bcd60e51b815260040161046590613c70565b7f5563b2f622e18f06e5c93366a0691f68ba756dfee65829c82ee9c9bbfb2dda9583600085604051610dc991906139b1565b9081526040519081900360200181206107a59291613fe4565b60008160008082604051610df691906139b1565b908152604051908190036020019020600a015411610e265760405162461bcd60e51b8152600401610465906139cd565b600083604051610e3691906139b1565b908152604051908190036020019020600e0154600003610e595760009150610ed3565b600083604051610e6991906139b1565b9081526020016040518091039020600e016001600085604051610e8c91906139b1565b908152604051908190036020019020600e0154610ea99190613a18565b81548110610eb957610eb9613a31565b600091825260209091206001600390920201015460ff1691505b50919050565b3360009081526004602052604090205460ff16610f085760405162461bcd60e51b815260040161046590613967565b8260008082604051610f1a91906139b1565b908152604051908190036020019020600a015411610f4a5760405162461bcd60e51b8152600401610465906139cd565b81610fa057610f5884610de2565b610f9b5760405162461bcd60e51b815260206004820152601460248201527310d85c881a5cc8185b1c9958591e48199bdd5b9960621b6044820152606401610465565b610fee565b610fa984610de2565b15610fee5760405162461bcd60e51b815260206004820152601560248201527421b0b91034b99030b63932b0b23c9039ba37b632b760591b6044820152606401610465565b600084604051610ffe91906139b1565b9081526040805160209281900383018120606082018352428252851515848301908152928201878152600e90910180546001808201835560009283529590912083516003909202019081559251938301805460ff1916941515949094179093559151600282019061106f9082613b40565b50505081156110b6577fe46555fcb4399c724a0462ab2db9a5baadddd9b5c5f28e32927853c09d2c692184846040516110a9929190613bff565b60405180910390a16110e7565b7f04c9f87e663c97f3ab9ac9711955d3ac844bc0e604b9815a32842bebc0506cb28484604051610a5d929190613bff565b50505050565b3360009081526002602052604090205460ff1661111c5760405162461bcd60e51b815260040161046590614140565b60008a51116111635760405162461bcd60e51b815260206004820152601360248201527256494e2063616e6e6f7420626520656d70747960681b6044820152606401610465565b60008951116111ac5760405162461bcd60e51b81526020600482015260156024820152744272616e642063616e6e6f7420626520656d70747960581b6044820152606401610465565b60008851116111f55760405162461bcd60e51b81526020600482015260156024820152744d6f64656c2063616e6e6f7420626520656d70747960581b6044820152606401610465565b600087116112455760405162461bcd60e51b815260206004820152601b60248201527f59656172206d7573742062652067726561746572207468616e203000000000006044820152606401610465565b60008651116112965760405162461bcd60e51b815260206004820152601960248201527f4675656c20747970652063616e6e6f7420626520656d707479000000000000006044820152606401610465565b60008551116112f15760405162461bcd60e51b815260206004820152602160248201527f5472616e736d697373696f6e20747970652063616e6e6f7420626520656d70746044820152607960f81b6064820152608401610465565b600084511161133a5760405162461bcd60e51b8152602060048201526015602482015274436f6c6f722063616e6e6f7420626520656d70747960581b6044820152606401610465565b600083511161138b5760405162461bcd60e51b815260206004820152601d60248201527f436f6e66696775726174696f6e2063616e6e6f7420626520656d7074790000006044820152606401610465565b60008251116113dc5760405162461bcd60e51b815260206004820152601760248201527f436f756e7472792063616e6e6f7420626520656d7074790000000000000000006044820152606401610465565b6001600160a01b03811661142a5760405162461bcd60e51b81526020600482015260156024820152744f776e65722063616e6e6f7420626520656d70747960581b6044820152606401610465565b6114338a611a8b565b156114805760405162461bcd60e51b815260206004820181905260248201527f436172207769746820746869732056494e20616c7265616479206578697374736044820152606401610465565b6000808b60405161149191906139b1565b9081526040519081900360200190209050806114ad8b82613b40565b50600181016114bc8a82613b40565b5060028101889055600381016114d28882613b40565b50600481016114e18782613b40565b50600581016114f08682613b40565b50600681016114ff8582613b40565b506007810161150e8482613b40565b50600a81018054600181018255600091825260209091200180546001600160a01b0319166001600160a01b0384161790556040517f6bf30c75ca20c5984aa0099612441b63be270fffacb9a56320bc8f499a5cdb8a90611581908d908d908d908d908d908d908d908d908d908d90614182565b60405180910390a15050505050505050505050565b3360009081526004602052604090205460ff166115c55760405162461bcd60e51b815260040161046590613967565b82600080826040516115d791906139b1565b908152604051908190036020019020600a0154116116075760405162461bcd60e51b8152600401610465906139cd565b81518351146116715760405162461bcd60e51b815260206004820152603060248201527f4465736372697074696f6e7320616e6420616d6f756e7473206d75737420626560448201526f040e8d0ca40e6c2daca40d8cadccee8d60831b6064820152608401610465565b60005b835181101561183657600084828151811061169157611691613a31565b602002602001015151116116e75760405162461bcd60e51b815260206004820152601b60248201527f4465736372697074696f6e2063616e6e6f7420626520656d70747900000000006044820152606401610465565b60008382815181106116fb576116fb613a31565b6020026020010151116117505760405162461bcd60e51b815260206004820152601d60248201527f416d6f756e74206d7573742062652067726561746572207468616e20300000006044820152606401610465565b6000604051806080016040528042815260200186848151811061177557611775613a31565b6020026020010151815260200185848151811061179457611794613a31565b602002602001015181526020016000151581525090506000866040516117ba91906139b1565b90815260405160209181900382019020600b018054600180820183556000928352918390208451600490920201908155918301518392918201906117fe9082613b40565b50604082015160028201556060909101516003909101805460ff1916911515919091179055508061182e8161424a565b915050611674565b507f36b0649033c8770649511bb4a8253e433f7bdfeac1c783a296e1cfcdc41f7e8d848484604051610a5d93929190614263565b6001546001600160a01b031633146118945760405162461bcd60e51b815260040161046590613921565b6001600160a01b03811660009081526003602052604090205460ff16156118fd5760405162461bcd60e51b815260206004820152601f60248201527f496e737572616e636520636f6d70616e7920616c7265616479206164646564006044820152606401610465565b6001600160a01b038116600081815260036020908152604091829020805460ff1916600117905590519182527f764eab19189128bc621923fc04d93a7fa85cdc401d2d2815858f3d3db6e5fd59910161051e565b60055460ff166119a35760405162461bcd60e51b815260206004820152601960248201527f4f6e6c7920666f722074657374696e6720707572706f736573000000000000006044820152606401610465565b3360009081526002602052604090205460ff1680156119d157503360009081526003602052604090205460ff165b80156119ec57503360009081526004602052604090205460ff165b15611a485760405162461bcd60e51b815260206004820152602660248201527f4164647265737320697320616c726561647920616c6c6f77656420746f2062656044820152651030b236b4b760d11b6064820152608401610465565b3360009081526002602090815260408083208054600160ff1991821681179092556003845282852080548216831790556004909352922080549091169091179055565b600080825111611ad35760405162461bcd60e51b815260206004820152601360248201527256494e2063616e6e6f7420626520656d70747960681b6044820152606401610465565b60008083604051611ae491906139b1565b908152604051908190036020019020600a01541192915050565b3360009081526002602052604090205460ff16611b2d5760405162461bcd60e51b815260040161046590614140565b8260008082604051611b3f91906139b1565b908152604051908190036020019020600a015411611b6f5760405162461bcd60e51b8152600401610465906139cd565b82600085604051611b8091906139b1565b90815260200160405180910390206009015410611bf05760405162461bcd60e51b815260206004820152602860248201527f4e6577206d696c65616765206d7573742062652067726561746572207468616e604482015267206f6c64206f6e6560c01b6064820152608401610465565b82600085604051611c0191906139b1565b90815260200160405180910390206009018190555060006040518060600160405280428152602001858152602001848152509050600085604051611c4591906139b1565b9081526040805160209281900383019020600c01805460018082018355600092835291849020855160039092020190815584840151918101919091559083015180518493611c9a926002850192910190612da5565b5050507faa8c42b4f8178bb5821d08838f0a8a14c25947eae2656a033810be9aec1a5305858585604051610c7d939291906142cc565b611d49604051806101e001604052806060815260200160608152602001600081526020016060815260200160608152602001606081526020016060815260200160608152602001606081526020016000815260200160608152602001606081526020016060815260200160608152602001606081525090565b8160008082604051611d5b91906139b1565b908152604051908190036020019020600a015411611d8b5760405162461bcd60e51b8152600401610465906139cd565b3360009081526002602052604090205460ff1680611db857503360009081526003602052604090205460ff165b80611dd257503360009081526004602052604090205460ff165b611e545760405162461bcd60e51b815260206004820152604760248201527f4f6e6c79206465616c65722c20696e737572616e636520636f6d70616e79206f60448201527f72207472616666696320706f6c6963652063616e2063616c6c207468697320666064820152663ab731ba34b7b760c91b608482015260a401610465565b600083604051611e6491906139b1565b9081526020016040518091039020604051806101e0016040529081600082018054611e8e90613a47565b80601f0160208091040260200160405190810160405280929190818152602001828054611eba90613a47565b8015611f075780601f10611edc57610100808354040283529160200191611f07565b820191906000526020600020905b815481529060010190602001808311611eea57829003601f168201915b50505050508152602001600182018054611f2090613a47565b80601f0160208091040260200160405190810160405280929190818152602001828054611f4c90613a47565b8015611f995780601f10611f6e57610100808354040283529160200191611f99565b820191906000526020600020905b815481529060010190602001808311611f7c57829003601f168201915b5050505050815260200160028201548152602001600382018054611fbc90613a47565b80601f0160208091040260200160405190810160405280929190818152602001828054611fe890613a47565b80156120355780601f1061200a57610100808354040283529160200191612035565b820191906000526020600020905b81548152906001019060200180831161201857829003601f168201915b5050505050815260200160048201805461204e90613a47565b80601f016020809104026020016040519081016040528092919081815260200182805461207a90613a47565b80156120c75780601f1061209c576101008083540402835291602001916120c7565b820191906000526020600020905b8154815290600101906020018083116120aa57829003601f168201915b505050505081526020016005820180546120e090613a47565b80601f016020809104026020016040519081016040528092919081815260200182805461210c90613a47565b80156121595780601f1061212e57610100808354040283529160200191612159565b820191906000526020600020905b81548152906001019060200180831161213c57829003601f168201915b5050505050815260200160068201805461217290613a47565b80601f016020809104026020016040519081016040528092919081815260200182805461219e90613a47565b80156121eb5780601f106121c0576101008083540402835291602001916121eb565b820191906000526020600020905b8154815290600101906020018083116121ce57829003601f168201915b5050505050815260200160078201805461220490613a47565b80601f016020809104026020016040519081016040528092919081815260200182805461223090613a47565b801561227d5780601f106122525761010080835404028352916020019161227d565b820191906000526020600020905b81548152906001019060200180831161226057829003601f168201915b5050505050815260200160088201805480602002602001604051908101604052809291908181526020016000905b828210156123575783829060005260206000200180546122ca90613a47565b80601f01602080910402602001604051908101604052809291908181526020018280546122f690613a47565b80156123435780601f1061231857610100808354040283529160200191612343565b820191906000526020600020905b81548152906001019060200180831161232657829003601f168201915b5050505050815260200190600101906122ab565b50505050815260200160098201548152602001600a82018054806020026020016040519081016040528092919081815260200182805480156123c257602002820191906000526020600020905b81546001600160a01b031681526001909101906020018083116123a4575b50505050508152602001600b8201805480602002602001604051908101604052809291908181526020016000905b828210156124dd57838290600052602060002090600402016040518060800160405290816000820154815260200160018201805461242d90613a47565b80601f016020809104026020016040519081016040528092919081815260200182805461245990613a47565b80156124a65780601f1061247b576101008083540402835291602001916124a6565b820191906000526020600020905b81548152906001019060200180831161248957829003601f168201915b5050509183525050600282015460208083019190915260039092015460ff16151560409091015290825260019290920191016123f0565b505050508152602001600c8201805480602002602001604051908101604052809291908181526020016000905b828210156126295783829060005260206000209060030201604051806060016040529081600082015481526020016001820154815260200160028201805480602002602001604051908101604052809291908181526020016000905b8282101561261257838290600052602060002001805461258590613a47565b80601f01602080910402602001604051908101604052809291908181526020018280546125b190613a47565b80156125fe5780601f106125d3576101008083540402835291602001916125fe565b820191906000526020600020905b8154815290600101906020018083116125e157829003601f168201915b505050505081526020019060010190612566565b50505050815250508152602001906001019061250a565b505050508152602001600d8201805480602002602001604051908101604052809291908181526020016000905b828210156127fd57838290600052602060002090600302016040518060600160405290816000820154815260200160018201805461269390613a47565b80601f01602080910402602001604051908101604052809291908181526020018280546126bf90613a47565b801561270c5780601f106126e15761010080835404028352916020019161270c565b820191906000526020600020905b8154815290600101906020018083116126ef57829003601f168201915b5050505050815260200160028201805480602002602001604051908101604052809291908181526020016000905b828210156127e657838290600052602060002001805461275990613a47565b80601f016020809104026020016040519081016040528092919081815260200182805461278590613a47565b80156127d25780601f106127a7576101008083540402835291602001916127d2565b820191906000526020600020905b8154815290600101906020018083116127b557829003601f168201915b50505050508152602001906001019061273a565b505050508152505081526020019060010190612656565b505050508152602001600e8201805480602002602001604051908101604052809291908181526020016000905b8282101561290a576000848152602090819020604080516060810182526003860290920180548352600181015460ff161515938301939093526002830180549293929184019161287990613a47565b80601f01602080910402602001604051908101604052809291908181526020018280546128a590613a47565b80156128f25780601f106128c7576101008083540402835291602001916128f2565b820191906000526020600020905b8154815290600101906020018083116128d557829003601f168201915b5050505050815250508152602001906001019061282a565b50505091525090949350505050565b3360009081526004602052604090205460ff166129485760405162461bcd60e51b815260040161046590613967565b816000808260405161295a91906139b1565b908152604051908190036020019020600a01541161298a5760405162461bcd60e51b8152600401610465906139cd565b60008360405161299a91906139b1565b908152604051908190036020019020600b015482106129cb5760405162461bcd60e51b815260040161046590613c2d565b6000836040516129db91906139b1565b9081526020016040518091039020600b0182815481106129fd576129fd613a31565b600091825260209091206003600490920201015460ff1615612a615760405162461bcd60e51b815260206004820152601a60248201527f46696e652068617320616c7265616479206265656e20706169640000000000006044820152606401610465565b6001600084604051612a7391906139b1565b9081526020016040518091039020600b018381548110612a9557612a95613a31565b906000526020600020906004020160030160006101000a81548160ff0219169083151502179055507fadfb6559168451e721d191976caf5a897c0e0e8057819f67efa8ec08a857988a83836040516107a5929190613cb8565b3360009081526004602052604090205460ff16612b1d5760405162461bcd60e51b815260040161046590613967565b8160008082604051612b2f91906139b1565b908152604051908190036020019020600a015411612b5f5760405162461bcd60e51b8152600401610465906139cd565b816001600160a01b0316600084604051612b7991906139b1565b9081526020016040518091039020600a016001600086604051612b9c91906139b1565b908152604051908190036020019020600a0154612bb99190613a18565b81548110612bc957612bc9613a31565b6000918252602090912001546001600160a01b031603612c405760405162461bcd60e51b815260206004820152602c60248201527f4e6577206f776e6572206d75737420626520646966666572656e742066726f6d60448201526b20746865206f6c64206f6e6560a01b6064820152608401610465565b600083604051612c5091906139b1565b90815260405160209181900382018120600a018054600181018255600091825292902090910180546001600160a01b0319166001600160a01b0385161790557ff541a6fc5b574d93915702f6e074dbd9028a4d9e2d8f537ed358b2d9e87c618a906107a590859085906142f7565b6001546001600160a01b03163314612ce85760405162461bcd60e51b815260040161046590613921565b6001600160a01b03811660009081526004602052604090205460ff1615612d515760405162461bcd60e51b815260206004820152601c60248201527f5472616666696320706f6c69636520616c7265616479206164646564000000006044820152606401610465565b6001600160a01b038116600081815260046020908152604091829020805460ff1916600117905590519182527fec92f699a94eed37aee06c2a34a212ed6ad617208e93fdc318283fea06a61ed7910161051e565b828054828255906000526020600020908101928215612deb579160200282015b82811115612deb5782518290612ddb9082613b40565b5091602001919060010190612dc5565b50612df7929150612dfb565b5090565b80821115612df7576000612e0f8282612e18565b50600101612dfb565b508054612e2490613a47565b6000825580601f10612e34575050565b601f016020900490600052602060002090810190612e529190612e55565b50565b5b80821115612df75760008155600101612e56565b80356001600160a01b0381168114612e8157600080fd5b919050565b600060208284031215612e9857600080fd5b612ea182612e6a565b9392505050565b634e487b7160e01b600052604160045260246000fd5b604051601f8201601f191681016001600160401b0381118282101715612ee657612ee6612ea8565b604052919050565b600082601f830112612eff57600080fd5b81356001600160401b03811115612f1857612f18612ea8565b612f2b601f8201601f1916602001612ebe565b818152846020838601011115612f4057600080fd5b816020850160208301376000918101602001919091529392505050565b60008060408385031215612f7057600080fd5b82356001600160401b0380821115612f8757600080fd5b612f9386838701612eee565b93506020850135915080821115612fa957600080fd5b50612fb685828601612eee565b9150509250929050565b60008060408385031215612fd357600080fd5b82356001600160401b03811115612fe957600080fd5b612ff585828601612eee565b95602094909401359450505050565b60006001600160401b0382111561301d5761301d612ea8565b5060051b60200190565b600082601f83011261303857600080fd5b8135602061304d61304883613004565b612ebe565b82815260059290921b8401810191818101908684111561306c57600080fd5b8286015b848110156130ab5780356001600160401b0381111561308f5760008081fd5b61309d8986838b0101612eee565b845250918301918301613070565b509695505050505050565b6000806000606084860312156130cb57600080fd5b83356001600160401b03808211156130e257600080fd5b6130ee87838801612eee565b9450602086013591508082111561310457600080fd5b61311087838801612eee565b9350604086013591508082111561312657600080fd5b5061313386828701613027565b9150509250925092565b60006020828403121561314f57600080fd5b81356001600160401b0381111561316557600080fd5b61317184828501612eee565b949350505050565b60008060006060848603121561318e57600080fd5b83356001600160401b03808211156131a557600080fd5b6131b187838801612eee565b945060208601359150808211156131c757600080fd5b506131d486828701612eee565b925050604084013580151581146131ea57600080fd5b809150509250925092565b6000806000806000806000806000806101408b8d03121561321557600080fd5b8a356001600160401b038082111561322c57600080fd5b6132388e838f01612eee565b9b5060208d013591508082111561324e57600080fd5b61325a8e838f01612eee565b9a5060408d013591508082111561327057600080fd5b61327c8e838f01612eee565b995060608d0135985060808d013591508082111561329957600080fd5b6132a58e838f01612eee565b975060a08d01359150808211156132bb57600080fd5b6132c78e838f01612eee565b965060c08d01359150808211156132dd57600080fd5b6132e98e838f01612eee565b955060e08d01359150808211156132ff57600080fd5b61330b8e838f01612eee565b94506101008d013591508082111561332257600080fd5b5061332f8d828e01612eee565b92505061333f6101208c01612e6a565b90509295989b9194979a5092959850565b60008060006060848603121561336557600080fd5b83356001600160401b038082111561337c57600080fd5b61338887838801612eee565b945060209150818601358181111561339f57600080fd5b6133ab88828901613027565b9450506040860135818111156133c057600080fd5b86019050601f810187136133d357600080fd5b80356133e161304882613004565b81815260059190911b8201830190838101908983111561340057600080fd5b928401925b8284101561341e57833582529284019290840190613405565b80955050505050509250925092565b60008060006060848603121561344257600080fd5b83356001600160401b038082111561345957600080fd5b61346587838801612eee565b945060208601359350604086013591508082111561312657600080fd5b60005b8381101561349d578181015183820152602001613485565b50506000910152565b600081518084526134be816020860160208601613482565b601f01601f19169290920160200192915050565b600081518084526020808501808196508360051b8101915082860160005b8581101561351a5782840389526135088483516134a6565b988501989350908401906001016134f0565b5091979650505050505050565b600081518084526020808501945080840160005b838110156135605781516001600160a01b03168752958201959082019060010161353b565b509495945050505050565b600081518084526020808501808196508360051b8101915082860160005b8581101561351a57828403895281516080815186528682015181888801526135b3828801826134a6565b604084810151908901526060938401511515939097019290925250509784019790840190600101613589565b600081518084526020808501808196508360051b8101915082860160005b8581101561351a5782840389528151805185528581015186860152604090810151606091860182905290613633818701836134d2565b9a87019a95505050908401906001016135fd565b600081518084526020808501808196508360051b8101915082860160005b8581101561351a578284038952815160608151865286820151818888015261368f828801826134a6565b915050604080830151925086820381880152506136ac81836134d2565b9a87019a9550505090840190600101613665565b600081518084526020808501808196508360051b8101915082860160005b8581101561351a57828403895281518051855285810151151586860152604090810151606091860182905290613716818701836134a6565b9a87019a95505050908401906001016136de565b60208152600082516101e08060208501526137496102008501836134a6565b91506020850151601f198086850301604087015261376784836134a6565b935060408701516060870152606087015191508086850301608087015261378e84836134a6565b935060808701519150808685030160a08701526137ab84836134a6565b935060a08701519150808685030160c08701526137c884836134a6565b935060c08701519150808685030160e08701526137e584836134a6565b935060e0870151915061010081878603018188015261380485846134a6565b94508088015192505061012081878603018188015261382385846134d2565b9450808801519250506101408281880152808801519250506101608187860301818801526138518584613527565b945080880151925050610180818786030181880152613870858461356b565b9450808801519250506101a081878603018188015261388f85846135df565b9450808801519250506101c08187860301818801526138ae8584613647565b9088015187820390920184880152935090506138ca83826136c0565b9695505050505050565b600080604083850312156138e757600080fd5b82356001600160401b038111156138fd57600080fd5b61390985828601612eee565b92505061391860208401612e6a565b90509250929050565b60208082526026908201527f4f6e6c7920676f7665726e6d656e742063616e2063616c6c20746869732066756040820152653731ba34b7b760d11b606082015260800190565b6020808252602a908201527f4f6e6c79207472616666696320706f6c6963652063616e2063616c6c207468696040820152693990333ab731ba34b7b760b11b606082015260800190565b600082516139c3818460208701613482565b9190910192915050565b6020808252818101527f436172207769746820746869732056494e20646f6573206e6f74206578697374604082015260600190565b634e487b7160e01b600052601160045260246000fd5b81810381811115613a2b57613a2b613a02565b92915050565b634e487b7160e01b600052603260045260246000fd5b600181811c90821680613a5b57607f821691505b602082108103610ed357634e487b7160e01b600052602260045260246000fd5b6000808354613a8981613a47565b60018281168015613aa15760018114613ab657613ae5565b60ff1984168752821515830287019450613ae5565b8760005260208060002060005b85811015613adc5781548a820152908401908201613ac3565b50505082870194505b50929695505050505050565b601f821115613b3b57600081815260208120601f850160051c81016020861015613b185750805b601f850160051c820191505b81811015613b3757828155600101613b24565b5050505b505050565b81516001600160401b03811115613b5957613b59612ea8565b613b6d81613b678454613a47565b84613af1565b602080601f831160018114613ba25760008415613b8a5750858301515b600019600386901b1c1916600185901b178555613b37565b600085815260208120601f198616915b82811015613bd157888601518255948401946001909101908401613bb2565b5085821015613bef5787850151600019600388901b60f8161c191681555b5050505050600190811b01905550565b604081526000613c1260408301856134a6565b8281036020840152613c2481856134a6565b95945050505050565b60208082526023908201527f46696e652077697468207468697320696e64657820646f6573206e6f742065786040820152621a5cdd60ea1b606082015260800190565b60208082526028908201527f556e61626c6520746f2073656e642076616c75652c207472616e73616374696f6040820152671b8819985a5b195960c21b606082015260800190565b604081526000613ccb60408301856134a6565b90508260208301529392505050565b606081526000613ced60608301866134a6565b8281036020840152613cff81866134a6565b905082810360408401526138ca81856134d2565b60008154613d2081613a47565b808552602060018381168015613d3d5760018114613d5757613d85565b60ff1985168884015283151560051b880183019550613d85565b866000528260002060005b85811015613d7d5781548a8201860152908301908401613d62565b890184019650505b505050505092915050565b600081548084526020808501808196508360051b81019150856000528260002060005b8581101561351a578284038952613dca8483613d13565b98850198935060019182019101613db3565b6000815480845260208085019450836000528060002060005b838110156135605781546001600160a01b031687529582019560019182019101613df5565b600081548084526020808501808196508360051b81019150856000528260002060005b8581101561351a5782840389526080825485528086860152613e6481860160018501613d13565b60028401546040870152600384015460ff1615156060909601959095525097840197600490910190600101613e3d565b600081548084526020808501808196508360051b81019150856000528260002060005b8581101561351a578284038952606082548552600183015486860152806040860152613ee881860160028501613d90565b9986019994505060039190910190600101613eb7565b600081548084526020808501808196508360051b81019150856000528260002060005b8581101561351a5782840389526060825485528086860152613f4881860160018501613d13565b90508481036040860152613f5f8160028501613d90565b9986019994505060039190910190600101613f21565b600081548084526020808501808196508360051b81019150856000528260002060005b8581101561351a57828403895260608254855260ff600184015416151586860152806040860152613fce81860160028501613d13565b9986019994505060039190910190600101613f98565b604081526000613ff760408301856134a6565b82810360208401526101e080825261401181830186613d13565b905081810360208301526140288160018701613d13565b90506002850154604083015281810360608301526140498160038701613d13565b905081810360808301526140608160048701613d13565b905081810360a08301526140778160058701613d13565b905081810360c083015261408e8160068701613d13565b905081810360e08301526140a58160078701613d13565b90508181036101008301526140bd8160088701613d90565b905060098501546101208301528181036101408301526140e081600a8701613ddc565b90508181036101608301526140f881600b8701613e1a565b905081810361018083015261411081600c8701613e94565b90508181036101a083015261412881600d8701613efe565b90508181036101c08301526138ca81600e8701613f75565b60208082526022908201527f4f6e6c79206465616c65722063616e2063616c6c20746869732066756e63746960408201526137b760f11b606082015260800190565b60006101408083526141968184018e6134a6565b905082810360208401526141aa818d6134a6565b905082810360408401526141be818c6134a6565b905089606084015282810360808401526141d8818a6134a6565b905082810360a08401526141ec81896134a6565b905082810360c084015261420081886134a6565b905082810360e084015261421481876134a6565b905082810361010084015261422981866134a6565b91505060018060a01b0383166101208301529b9a5050505050505050505050565b60006001820161425c5761425c613a02565b5060010190565b60608152600061427660608301866134a6565b60208382038185015261428982876134d2565b8481036040860152855180825282870193509082019060005b818110156142be578451835293830193918301916001016142a2565b509098975050505050505050565b6060815260006142df60608301866134a6565b84602084015282810360408401526138ca81856134d2565b60408152600061430a60408301856134a6565b905060018060a01b0383166020830152939250505056fea2646970667358221220cbdda6662b0da7a12307d3928c2ee2c5e993c11051b9d30f640deca61e1f79be64736f6c63430008140033",
  "linkReferences": {},
  "deployedLinkReferences": {}
}