{
  "_format": "hh-sol-artifact-1",
  "contractName": "VinDecode",
  "sourceName": "contracts/VinDecode.sol",
  "abi": [
    {
      "inputs": [
        {
          "internalType": "bool",
          "name": "_isTestEnvironment",
          "type": "bool"
        }
      ],
      "stateMutability": "nonpayable",
      "type": "constructor"
    },
    {
      "anonymous": false,
      "inputs": [
        {
          "indexed": false,
          "internalType": "string",
          "name": "vin",
          "type": "string"
        },
        {
          "components": [
            {
              "internalType": "string",
              "name": "brand",
              "type": "string"
            },
            {
              "internalType": "string",
              "name": "model",
              "type": "string"
            },
            {
              "internalType": "uint256",
              "name": "year",
              "type": "uint256"
            },
            {
              "internalType": "string",
              "name": "fuelType",
              "type": "string"
            },
            {
              "internalType": "string",
              "name": "transmissionType",
              "type": "string"
            },
            {
              "internalType": "string",
              "name": "color",
              "type": "string"
            },
            {
              "internalType": "string",
              "name": "configuration",
              "type": "string"
            },
            {
              "internalType": "string",
              "name": "country",
              "type": "string"
            },
            {
              "internalType": "string[]",
              "name": "plateNumbers",
              "type": "string[]"
            },
            {
              "internalType": "uint256",
              "name": "mileage",
              "type": "uint256"
            },
            {
              "internalType": "address[]",
              "name": "owners",
              "type": "address[]"
            },
            {
              "components": [
                {
                  "internalType": "uint256",
                  "name": "date",
                  "type": "uint256"
                },
                {
                  "internalType": "string",
                  "name": "description",
                  "type": "string"
                },
                {
                  "internalType": "uint256",
                  "name": "amount",
                  "type": "uint256"
                },
                {
                  "internalType": "bool",
                  "name": "paid",
                  "type": "bool"
                }
              ],
              "internalType": "struct CarTypes.Fine[]",
              "name": "fines",
              "type": "tuple[]"
            },
            {
              "components": [
                {
                  "internalType": "uint256",
                  "name": "date",
                  "type": "uint256"
                },
                {
                  "internalType": "uint256",
                  "name": "mileage",
                  "type": "uint256"
                },
                {
                  "internalType": "string[]",
                  "name": "works",
                  "type": "string[]"
                }
              ],
              "internalType": "struct CarTypes.ServiceWork[]",
              "name": "serviceHistory",
              "type": "tuple[]"
            },
            {
              "components": [
                {
                  "internalType": "uint256",
                  "name": "date",
                  "type": "uint256"
                },
                {
                  "internalType": "string",
                  "name": "description",
                  "type": "string"
                },
                {
                  "internalType": "string[]",
                  "name": "images",
                  "type": "string[]"
                }
              ],
              "internalType": "struct CarTypes.Accident[]",
              "name": "accidents",
              "type": "tuple[]"
            },
            {
              "components": [
                {
                  "internalType": "uint256",
                  "name": "date",
                  "type": "uint256"
                },
                {
                  "internalType": "bool",
                  "name": "isStolen",
                  "type": "bool"
                },
                {
                  "internalType": "string",
                  "name": "location",
                  "type": "string"
                }
              ],
              "internalType": "struct CarTypes.Theft[]",
              "name": "theftHistory",
              "type": "tuple[]"
            }
          ],
          "indexed": false,
          "internalType": "struct CarTypes.Car",
          "name": "car",
          "type": "tuple"
        }
      ],
      "name": "AccidentAdded",
      "type": "event"
    },
    {
      "anonymous": false,
      "inputs": [
        {
          "indexed": false,
          "internalType": "string",
          "name": "vin",
          "type": "string"
        },
        {
          "components": [
            {
              "internalType": "string",
              "name": "brand",
              "type": "string"
            },
            {
              "internalType": "string",
              "name": "model",
              "type": "string"
            },
            {
              "internalType": "uint256",
              "name": "year",
              "type": "uint256"
            },
            {
              "internalType": "string",
              "name": "fuelType",
              "type": "string"
            },
            {
              "internalType": "string",
              "name": "transmissionType",
              "type": "string"
            },
            {
              "internalType": "string",
              "name": "color",
              "type": "string"
            },
            {
              "internalType": "string",
              "name": "configuration",
              "type": "string"
            },
            {
              "internalType": "string",
              "name": "country",
              "type": "string"
            },
            {
              "internalType": "string[]",
              "name": "plateNumbers",
              "type": "string[]"
            },
            {
              "internalType": "uint256",
              "name": "mileage",
              "type": "uint256"
            },
            {
              "internalType": "address[]",
              "name": "owners",
              "type": "address[]"
            },
            {
              "components": [
                {
                  "internalType": "uint256",
                  "name": "date",
                  "type": "uint256"
                },
                {
                  "internalType": "string",
                  "name": "description",
                  "type": "string"
                },
                {
                  "internalType": "uint256",
                  "name": "amount",
                  "type": "uint256"
                },
                {
                  "internalType": "bool",
                  "name": "paid",
                  "type": "bool"
                }
              ],
              "internalType": "struct CarTypes.Fine[]",
              "name": "fines",
              "type": "tuple[]"
            },
            {
              "components": [
                {
                  "internalType": "uint256",
                  "name": "date",
                  "type": "uint256"
                },
                {
                  "internalType": "uint256",
                  "name": "mileage",
                  "type": "uint256"
                },
                {
                  "internalType": "string[]",
                  "name": "works",
                  "type": "string[]"
                }
              ],
              "internalType": "struct CarTypes.ServiceWork[]",
              "name": "serviceHistory",
              "type": "tuple[]"
            },
            {
              "components": [
                {
                  "internalType": "uint256",
                  "name": "date",
                  "type": "uint256"
                },
                {
                  "internalType": "string",
                  "name": "description",
                  "type": "string"
                },
                {
                  "internalType": "string[]",
                  "name": "images",
                  "type": "string[]"
                }
              ],
              "internalType": "struct CarTypes.Accident[]",
              "name": "accidents",
              "type": "tuple[]"
            },
            {
              "components": [
                {
                  "internalType": "uint256",
                  "name": "date",
                  "type": "uint256"
                },
                {
                  "internalType": "bool",
                  "name": "isStolen",
                  "type": "bool"
                },
                {
                  "internalType": "string",
                  "name": "location",
                  "type": "string"
                }
              ],
              "internalType": "struct CarTypes.Theft[]",
              "name": "theftHistory",
              "type": "tuple[]"
            }
          ],
          "indexed": false,
          "internalType": "struct CarTypes.Car",
          "name": "car",
          "type": "tuple"
        }
      ],
      "name": "CarAdded",
      "type": "event"
    },
    {
      "anonymous": false,
      "inputs": [
        {
          "indexed": false,
          "internalType": "string",
          "name": "vin",
          "type": "string"
        },
        {
          "components": [
            {
              "internalType": "string",
              "name": "brand",
              "type": "string"
            },
            {
              "internalType": "string",
              "name": "model",
              "type": "string"
            },
            {
              "internalType": "uint256",
              "name": "year",
              "type": "uint256"
            },
            {
              "internalType": "string",
              "name": "fuelType",
              "type": "string"
            },
            {
              "internalType": "string",
              "name": "transmissionType",
              "type": "string"
            },
            {
              "internalType": "string",
              "name": "color",
              "type": "string"
            },
            {
              "internalType": "string",
              "name": "configuration",
              "type": "string"
            },
            {
              "internalType": "string",
              "name": "country",
              "type": "string"
            },
            {
              "internalType": "string[]",
              "name": "plateNumbers",
              "type": "string[]"
            },
            {
              "internalType": "uint256",
              "name": "mileage",
              "type": "uint256"
            },
            {
              "internalType": "address[]",
              "name": "owners",
              "type": "address[]"
            },
            {
              "components": [
                {
                  "internalType": "uint256",
                  "name": "date",
                  "type": "uint256"
                },
                {
                  "internalType": "string",
                  "name": "description",
                  "type": "string"
                },
                {
                  "internalType": "uint256",
                  "name": "amount",
                  "type": "uint256"
                },
                {
                  "internalType": "bool",
                  "name": "paid",
                  "type": "bool"
                }
              ],
              "internalType": "struct CarTypes.Fine[]",
              "name": "fines",
              "type": "tuple[]"
            },
            {
              "components": [
                {
                  "internalType": "uint256",
                  "name": "date",
                  "type": "uint256"
                },
                {
                  "internalType": "uint256",
                  "name": "mileage",
                  "type": "uint256"
                },
                {
                  "internalType": "string[]",
                  "name": "works",
                  "type": "string[]"
                }
              ],
              "internalType": "struct CarTypes.ServiceWork[]",
              "name": "serviceHistory",
              "type": "tuple[]"
            },
            {
              "components": [
                {
                  "internalType": "uint256",
                  "name": "date",
                  "type": "uint256"
                },
                {
                  "internalType": "string",
                  "name": "description",
                  "type": "string"
                },
                {
                  "internalType": "string[]",
                  "name": "images",
                  "type": "string[]"
                }
              ],
              "internalType": "struct CarTypes.Accident[]",
              "name": "accidents",
              "type": "tuple[]"
            },
            {
              "components": [
                {
                  "internalType": "uint256",
                  "name": "date",
                  "type": "uint256"
                },
                {
                  "internalType": "bool",
                  "name": "isStolen",
                  "type": "bool"
                },
                {
                  "internalType": "string",
                  "name": "location",
                  "type": "string"
                }
              ],
              "internalType": "struct CarTypes.Theft[]",
              "name": "theftHistory",
              "type": "tuple[]"
            }
          ],
          "indexed": false,
          "internalType": "struct CarTypes.Car",
          "name": "car",
          "type": "tuple"
        }
      ],
      "name": "CarReportedFound",
      "type": "event"
    },
    {
      "anonymous": false,
      "inputs": [
        {
          "indexed": false,
          "internalType": "string",
          "name": "vin",
          "type": "string"
        },
        {
          "components": [
            {
              "internalType": "string",
              "name": "brand",
              "type": "string"
            },
            {
              "internalType": "string",
              "name": "model",
              "type": "string"
            },
            {
              "internalType": "uint256",
              "name": "year",
              "type": "uint256"
            },
            {
              "internalType": "string",
              "name": "fuelType",
              "type": "string"
            },
            {
              "internalType": "string",
              "name": "transmissionType",
              "type": "string"
            },
            {
              "internalType": "string",
              "name": "color",
              "type": "string"
            },
            {
              "internalType": "string",
              "name": "configuration",
              "type": "string"
            },
            {
              "internalType": "string",
              "name": "country",
              "type": "string"
            },
            {
              "internalType": "string[]",
              "name": "plateNumbers",
              "type": "string[]"
            },
            {
              "internalType": "uint256",
              "name": "mileage",
              "type": "uint256"
            },
            {
              "internalType": "address[]",
              "name": "owners",
              "type": "address[]"
            },
            {
              "components": [
                {
                  "internalType": "uint256",
                  "name": "date",
                  "type": "uint256"
                },
                {
                  "internalType": "string",
                  "name": "description",
                  "type": "string"
                },
                {
                  "internalType": "uint256",
                  "name": "amount",
                  "type": "uint256"
                },
                {
                  "internalType": "bool",
                  "name": "paid",
                  "type": "bool"
                }
              ],
              "internalType": "struct CarTypes.Fine[]",
              "name": "fines",
              "type": "tuple[]"
            },
            {
              "components": [
                {
                  "internalType": "uint256",
                  "name": "date",
                  "type": "uint256"
                },
                {
                  "internalType": "uint256",
                  "name": "mileage",
                  "type": "uint256"
                },
                {
                  "internalType": "string[]",
                  "name": "works",
                  "type": "string[]"
                }
              ],
              "internalType": "struct CarTypes.ServiceWork[]",
              "name": "serviceHistory",
              "type": "tuple[]"
            },
            {
              "components": [
                {
                  "internalType": "uint256",
                  "name": "date",
                  "type": "uint256"
                },
                {
                  "internalType": "string",
                  "name": "description",
                  "type": "string"
                },
                {
                  "internalType": "string[]",
                  "name": "images",
                  "type": "string[]"
                }
              ],
              "internalType": "struct CarTypes.Accident[]",
              "name": "accidents",
              "type": "tuple[]"
            },
            {
              "components": [
                {
                  "internalType": "uint256",
                  "name": "date",
                  "type": "uint256"
                },
                {
                  "internalType": "bool",
                  "name": "isStolen",
                  "type": "bool"
                },
                {
                  "internalType": "string",
                  "name": "location",
                  "type": "string"
                }
              ],
              "internalType": "struct CarTypes.Theft[]",
              "name": "theftHistory",
              "type": "tuple[]"
            }
          ],
          "indexed": false,
          "internalType": "struct CarTypes.Car",
          "name": "car",
          "type": "tuple"
        }
      ],
      "name": "CarReportedStolen",
      "type": "event"
    },
    {
      "anonymous": false,
      "inputs": [
        {
          "indexed": false,
          "internalType": "address",
          "name": "dealer",
          "type": "address"
        }
      ],
      "name": "DealerAdded",
      "type": "event"
    },
    {
      "anonymous": false,
      "inputs": [
        {
          "indexed": false,
          "internalType": "string",
          "name": "vin",
          "type": "string"
        },
        {
          "components": [
            {
              "internalType": "string",
              "name": "brand",
              "type": "string"
            },
            {
              "internalType": "string",
              "name": "model",
              "type": "string"
            },
            {
              "internalType": "uint256",
              "name": "year",
              "type": "uint256"
            },
            {
              "internalType": "string",
              "name": "fuelType",
              "type": "string"
            },
            {
              "internalType": "string",
              "name": "transmissionType",
              "type": "string"
            },
            {
              "internalType": "string",
              "name": "color",
              "type": "string"
            },
            {
              "internalType": "string",
              "name": "configuration",
              "type": "string"
            },
            {
              "internalType": "string",
              "name": "country",
              "type": "string"
            },
            {
              "internalType": "string[]",
              "name": "plateNumbers",
              "type": "string[]"
            },
            {
              "internalType": "uint256",
              "name": "mileage",
              "type": "uint256"
            },
            {
              "internalType": "address[]",
              "name": "owners",
              "type": "address[]"
            },
            {
              "components": [
                {
                  "internalType": "uint256",
                  "name": "date",
                  "type": "uint256"
                },
                {
                  "internalType": "string",
                  "name": "description",
                  "type": "string"
                },
                {
                  "internalType": "uint256",
                  "name": "amount",
                  "type": "uint256"
                },
                {
                  "internalType": "bool",
                  "name": "paid",
                  "type": "bool"
                }
              ],
              "internalType": "struct CarTypes.Fine[]",
              "name": "fines",
              "type": "tuple[]"
            },
            {
              "components": [
                {
                  "internalType": "uint256",
                  "name": "date",
                  "type": "uint256"
                },
                {
                  "internalType": "uint256",
                  "name": "mileage",
                  "type": "uint256"
                },
                {
                  "internalType": "string[]",
                  "name": "works",
                  "type": "string[]"
                }
              ],
              "internalType": "struct CarTypes.ServiceWork[]",
              "name": "serviceHistory",
              "type": "tuple[]"
            },
            {
              "components": [
                {
                  "internalType": "uint256",
                  "name": "date",
                  "type": "uint256"
                },
                {
                  "internalType": "string",
                  "name": "description",
                  "type": "string"
                },
                {
                  "internalType": "string[]",
                  "name": "images",
                  "type": "string[]"
                }
              ],
              "internalType": "struct CarTypes.Accident[]",
              "name": "accidents",
              "type": "tuple[]"
            },
            {
              "components": [
                {
                  "internalType": "uint256",
                  "name": "date",
                  "type": "uint256"
                },
                {
                  "internalType": "bool",
                  "name": "isStolen",
                  "type": "bool"
                },
                {
                  "internalType": "string",
                  "name": "location",
                  "type": "string"
                }
              ],
              "internalType": "struct CarTypes.Theft[]",
              "name": "theftHistory",
              "type": "tuple[]"
            }
          ],
          "indexed": false,
          "internalType": "struct CarTypes.Car",
          "name": "car",
          "type": "tuple"
        }
      ],
      "name": "FinePaid",
      "type": "event"
    },
    {
      "anonymous": false,
      "inputs": [
        {
          "indexed": false,
          "internalType": "string",
          "name": "vin",
          "type": "string"
        },
        {
          "components": [
            {
              "internalType": "string",
              "name": "brand",
              "type": "string"
            },
            {
              "internalType": "string",
              "name": "model",
              "type": "string"
            },
            {
              "internalType": "uint256",
              "name": "year",
              "type": "uint256"
            },
            {
              "internalType": "string",
              "name": "fuelType",
              "type": "string"
            },
            {
              "internalType": "string",
              "name": "transmissionType",
              "type": "string"
            },
            {
              "internalType": "string",
              "name": "color",
              "type": "string"
            },
            {
              "internalType": "string",
              "name": "configuration",
              "type": "string"
            },
            {
              "internalType": "string",
              "name": "country",
              "type": "string"
            },
            {
              "internalType": "string[]",
              "name": "plateNumbers",
              "type": "string[]"
            },
            {
              "internalType": "uint256",
              "name": "mileage",
              "type": "uint256"
            },
            {
              "internalType": "address[]",
              "name": "owners",
              "type": "address[]"
            },
            {
              "components": [
                {
                  "internalType": "uint256",
                  "name": "date",
                  "type": "uint256"
                },
                {
                  "internalType": "string",
                  "name": "description",
                  "type": "string"
                },
                {
                  "internalType": "uint256",
                  "name": "amount",
                  "type": "uint256"
                },
                {
                  "internalType": "bool",
                  "name": "paid",
                  "type": "bool"
                }
              ],
              "internalType": "struct CarTypes.Fine[]",
              "name": "fines",
              "type": "tuple[]"
            },
            {
              "components": [
                {
                  "internalType": "uint256",
                  "name": "date",
                  "type": "uint256"
                },
                {
                  "internalType": "uint256",
                  "name": "mileage",
                  "type": "uint256"
                },
                {
                  "internalType": "string[]",
                  "name": "works",
                  "type": "string[]"
                }
              ],
              "internalType": "struct CarTypes.ServiceWork[]",
              "name": "serviceHistory",
              "type": "tuple[]"
            },
            {
              "components": [
                {
                  "internalType": "uint256",
                  "name": "date",
                  "type": "uint256"
                },
                {
                  "internalType": "string",
                  "name": "description",
                  "type": "string"
                },
                {
                  "internalType": "string[]",
                  "name": "images",
                  "type": "string[]"
                }
              ],
              "internalType": "struct CarTypes.Accident[]",
              "name": "accidents",
              "type": "tuple[]"
            },
            {
              "components": [
                {
                  "internalType": "uint256",
                  "name": "date",
                  "type": "uint256"
                },
                {
                  "internalType": "bool",
                  "name": "isStolen",
                  "type": "bool"
                },
                {
                  "internalType": "string",
                  "name": "location",
                  "type": "string"
                }
              ],
              "internalType": "struct CarTypes.Theft[]",
              "name": "theftHistory",
              "type": "tuple[]"
            }
          ],
          "indexed": false,
          "internalType": "struct CarTypes.Car",
          "name": "car",
          "type": "tuple"
        }
      ],
      "name": "FinesAdded",
      "type": "event"
    },
    {
      "anonymous": false,
      "inputs": [
        {
          "indexed": false,
          "internalType": "address",
          "name": "insuranceCompany",
          "type": "address"
        }
      ],
      "name": "InsuranceCompanyAdded",
      "type": "event"
    },
    {
      "anonymous": false,
      "inputs": [
        {
          "indexed": false,
          "internalType": "string",
          "name": "vin",
          "type": "string"
        },
        {
          "components": [
            {
              "internalType": "string",
              "name": "brand",
              "type": "string"
            },
            {
              "internalType": "string",
              "name": "model",
              "type": "string"
            },
            {
              "internalType": "uint256",
              "name": "year",
              "type": "uint256"
            },
            {
              "internalType": "string",
              "name": "fuelType",
              "type": "string"
            },
            {
              "internalType": "string",
              "name": "transmissionType",
              "type": "string"
            },
            {
              "internalType": "string",
              "name": "color",
              "type": "string"
            },
            {
              "internalType": "string",
              "name": "configuration",
              "type": "string"
            },
            {
              "internalType": "string",
              "name": "country",
              "type": "string"
            },
            {
              "internalType": "string[]",
              "name": "plateNumbers",
              "type": "string[]"
            },
            {
              "internalType": "uint256",
              "name": "mileage",
              "type": "uint256"
            },
            {
              "internalType": "address[]",
              "name": "owners",
              "type": "address[]"
            },
            {
              "components": [
                {
                  "internalType": "uint256",
                  "name": "date",
                  "type": "uint256"
                },
                {
                  "internalType": "string",
                  "name": "description",
                  "type": "string"
                },
                {
                  "internalType": "uint256",
                  "name": "amount",
                  "type": "uint256"
                },
                {
                  "internalType": "bool",
                  "name": "paid",
                  "type": "bool"
                }
              ],
              "internalType": "struct CarTypes.Fine[]",
              "name": "fines",
              "type": "tuple[]"
            },
            {
              "components": [
                {
                  "internalType": "uint256",
                  "name": "date",
                  "type": "uint256"
                },
                {
                  "internalType": "uint256",
                  "name": "mileage",
                  "type": "uint256"
                },
                {
                  "internalType": "string[]",
                  "name": "works",
                  "type": "string[]"
                }
              ],
              "internalType": "struct CarTypes.ServiceWork[]",
              "name": "serviceHistory",
              "type": "tuple[]"
            },
            {
              "components": [
                {
                  "internalType": "uint256",
                  "name": "date",
                  "type": "uint256"
                },
                {
                  "internalType": "string",
                  "name": "description",
                  "type": "string"
                },
                {
                  "internalType": "string[]",
                  "name": "images",
                  "type": "string[]"
                }
              ],
              "internalType": "struct CarTypes.Accident[]",
              "name": "accidents",
              "type": "tuple[]"
            },
            {
              "components": [
                {
                  "internalType": "uint256",
                  "name": "date",
                  "type": "uint256"
                },
                {
                  "internalType": "bool",
                  "name": "isStolen",
                  "type": "bool"
                },
                {
                  "internalType": "string",
                  "name": "location",
                  "type": "string"
                }
              ],
              "internalType": "struct CarTypes.Theft[]",
              "name": "theftHistory",
              "type": "tuple[]"
            }
          ],
          "indexed": false,
          "internalType": "struct CarTypes.Car",
          "name": "car",
          "type": "tuple"
        }
      ],
      "name": "NewOwnerAdded",
      "type": "event"
    },
    {
      "anonymous": false,
      "inputs": [
        {
          "indexed": false,
          "internalType": "string",
          "name": "vin",
          "type": "string"
        },
        {
          "components": [
            {
              "internalType": "string",
              "name": "brand",
              "type": "string"
            },
            {
              "internalType": "string",
              "name": "model",
              "type": "string"
            },
            {
              "internalType": "uint256",
              "name": "year",
              "type": "uint256"
            },
            {
              "internalType": "string",
              "name": "fuelType",
              "type": "string"
            },
            {
              "internalType": "string",
              "name": "transmissionType",
              "type": "string"
            },
            {
              "internalType": "string",
              "name": "color",
              "type": "string"
            },
            {
              "internalType": "string",
              "name": "configuration",
              "type": "string"
            },
            {
              "internalType": "string",
              "name": "country",
              "type": "string"
            },
            {
              "internalType": "string[]",
              "name": "plateNumbers",
              "type": "string[]"
            },
            {
              "internalType": "uint256",
              "name": "mileage",
              "type": "uint256"
            },
            {
              "internalType": "address[]",
              "name": "owners",
              "type": "address[]"
            },
            {
              "components": [
                {
                  "internalType": "uint256",
                  "name": "date",
                  "type": "uint256"
                },
                {
                  "internalType": "string",
                  "name": "description",
                  "type": "string"
                },
                {
                  "internalType": "uint256",
                  "name": "amount",
                  "type": "uint256"
                },
                {
                  "internalType": "bool",
                  "name": "paid",
                  "type": "bool"
                }
              ],
              "internalType": "struct CarTypes.Fine[]",
              "name": "fines",
              "type": "tuple[]"
            },
            {
              "components": [
                {
                  "internalType": "uint256",
                  "name": "date",
                  "type": "uint256"
                },
                {
                  "internalType": "uint256",
                  "name": "mileage",
                  "type": "uint256"
                },
                {
                  "internalType": "string[]",
                  "name": "works",
                  "type": "string[]"
                }
              ],
              "internalType": "struct CarTypes.ServiceWork[]",
              "name": "serviceHistory",
              "type": "tuple[]"
            },
            {
              "components": [
                {
                  "internalType": "uint256",
                  "name": "date",
                  "type": "uint256"
                },
                {
                  "internalType": "string",
                  "name": "description",
                  "type": "string"
                },
                {
                  "internalType": "string[]",
                  "name": "images",
                  "type": "string[]"
                }
              ],
              "internalType": "struct CarTypes.Accident[]",
              "name": "accidents",
              "type": "tuple[]"
            },
            {
              "components": [
                {
                  "internalType": "uint256",
                  "name": "date",
                  "type": "uint256"
                },
                {
                  "internalType": "bool",
                  "name": "isStolen",
                  "type": "bool"
                },
                {
                  "internalType": "string",
                  "name": "location",
                  "type": "string"
                }
              ],
              "internalType": "struct CarTypes.Theft[]",
              "name": "theftHistory",
              "type": "tuple[]"
            }
          ],
          "indexed": false,
          "internalType": "struct CarTypes.Car",
          "name": "car",
          "type": "tuple"
        }
      ],
      "name": "PlateChanged",
      "type": "event"
    },
    {
      "anonymous": false,
      "inputs": [
        {
          "indexed": false,
          "internalType": "string",
          "name": "vin",
          "type": "string"
        },
        {
          "components": [
            {
              "internalType": "string",
              "name": "brand",
              "type": "string"
            },
            {
              "internalType": "string",
              "name": "model",
              "type": "string"
            },
            {
              "internalType": "uint256",
              "name": "year",
              "type": "uint256"
            },
            {
              "internalType": "string",
              "name": "fuelType",
              "type": "string"
            },
            {
              "internalType": "string",
              "name": "transmissionType",
              "type": "string"
            },
            {
              "internalType": "string",
              "name": "color",
              "type": "string"
            },
            {
              "internalType": "string",
              "name": "configuration",
              "type": "string"
            },
            {
              "internalType": "string",
              "name": "country",
              "type": "string"
            },
            {
              "internalType": "string[]",
              "name": "plateNumbers",
              "type": "string[]"
            },
            {
              "internalType": "uint256",
              "name": "mileage",
              "type": "uint256"
            },
            {
              "internalType": "address[]",
              "name": "owners",
              "type": "address[]"
            },
            {
              "components": [
                {
                  "internalType": "uint256",
                  "name": "date",
                  "type": "uint256"
                },
                {
                  "internalType": "string",
                  "name": "description",
                  "type": "string"
                },
                {
                  "internalType": "uint256",
                  "name": "amount",
                  "type": "uint256"
                },
                {
                  "internalType": "bool",
                  "name": "paid",
                  "type": "bool"
                }
              ],
              "internalType": "struct CarTypes.Fine[]",
              "name": "fines",
              "type": "tuple[]"
            },
            {
              "components": [
                {
                  "internalType": "uint256",
                  "name": "date",
                  "type": "uint256"
                },
                {
                  "internalType": "uint256",
                  "name": "mileage",
                  "type": "uint256"
                },
                {
                  "internalType": "string[]",
                  "name": "works",
                  "type": "string[]"
                }
              ],
              "internalType": "struct CarTypes.ServiceWork[]",
              "name": "serviceHistory",
              "type": "tuple[]"
            },
            {
              "components": [
                {
                  "internalType": "uint256",
                  "name": "date",
                  "type": "uint256"
                },
                {
                  "internalType": "string",
                  "name": "description",
                  "type": "string"
                },
                {
                  "internalType": "string[]",
                  "name": "images",
                  "type": "string[]"
                }
              ],
              "internalType": "struct CarTypes.Accident[]",
              "name": "accidents",
              "type": "tuple[]"
            },
            {
              "components": [
                {
                  "internalType": "uint256",
                  "name": "date",
                  "type": "uint256"
                },
                {
                  "internalType": "bool",
                  "name": "isStolen",
                  "type": "bool"
                },
                {
                  "internalType": "string",
                  "name": "location",
                  "type": "string"
                }
              ],
              "internalType": "struct CarTypes.Theft[]",
              "name": "theftHistory",
              "type": "tuple[]"
            }
          ],
          "indexed": false,
          "internalType": "struct CarTypes.Car",
          "name": "car",
          "type": "tuple"
        }
      ],
      "name": "ReportPurchased",
      "type": "event"
    },
    {
      "anonymous": false,
      "inputs": [
        {
          "indexed": false,
          "internalType": "string",
          "name": "vin",
          "type": "string"
        },
        {
          "components": [
            {
              "internalType": "string",
              "name": "brand",
              "type": "string"
            },
            {
              "internalType": "string",
              "name": "model",
              "type": "string"
            },
            {
              "internalType": "uint256",
              "name": "year",
              "type": "uint256"
            },
            {
              "internalType": "string",
              "name": "fuelType",
              "type": "string"
            },
            {
              "internalType": "string",
              "name": "transmissionType",
              "type": "string"
            },
            {
              "internalType": "string",
              "name": "color",
              "type": "string"
            },
            {
              "internalType": "string",
              "name": "configuration",
              "type": "string"
            },
            {
              "internalType": "string",
              "name": "country",
              "type": "string"
            },
            {
              "internalType": "string[]",
              "name": "plateNumbers",
              "type": "string[]"
            },
            {
              "internalType": "uint256",
              "name": "mileage",
              "type": "uint256"
            },
            {
              "internalType": "address[]",
              "name": "owners",
              "type": "address[]"
            },
            {
              "components": [
                {
                  "internalType": "uint256",
                  "name": "date",
                  "type": "uint256"
                },
                {
                  "internalType": "string",
                  "name": "description",
                  "type": "string"
                },
                {
                  "internalType": "uint256",
                  "name": "amount",
                  "type": "uint256"
                },
                {
                  "internalType": "bool",
                  "name": "paid",
                  "type": "bool"
                }
              ],
              "internalType": "struct CarTypes.Fine[]",
              "name": "fines",
              "type": "tuple[]"
            },
            {
              "components": [
                {
                  "internalType": "uint256",
                  "name": "date",
                  "type": "uint256"
                },
                {
                  "internalType": "uint256",
                  "name": "mileage",
                  "type": "uint256"
                },
                {
                  "internalType": "string[]",
                  "name": "works",
                  "type": "string[]"
                }
              ],
              "internalType": "struct CarTypes.ServiceWork[]",
              "name": "serviceHistory",
              "type": "tuple[]"
            },
            {
              "components": [
                {
                  "internalType": "uint256",
                  "name": "date",
                  "type": "uint256"
                },
                {
                  "internalType": "string",
                  "name": "description",
                  "type": "string"
                },
                {
                  "internalType": "string[]",
                  "name": "images",
                  "type": "string[]"
                }
              ],
              "internalType": "struct CarTypes.Accident[]",
              "name": "accidents",
              "type": "tuple[]"
            },
            {
              "components": [
                {
                  "internalType": "uint256",
                  "name": "date",
                  "type": "uint256"
                },
                {
                  "internalType": "bool",
                  "name": "isStolen",
                  "type": "bool"
                },
                {
                  "internalType": "string",
                  "name": "location",
                  "type": "string"
                }
              ],
              "internalType": "struct CarTypes.Theft[]",
              "name": "theftHistory",
              "type": "tuple[]"
            }
          ],
          "indexed": false,
          "internalType": "struct CarTypes.Car",
          "name": "car",
          "type": "tuple"
        }
      ],
      "name": "ServiceHistoryUpdated",
      "type": "event"
    },
    {
      "anonymous": false,
      "inputs": [
        {
          "indexed": false,
          "internalType": "address",
          "name": "trafficPolice",
          "type": "address"
        }
      ],
      "name": "TrafficPoliceAdded",
      "type": "event"
    },
    {
      "inputs": [],
      "name": "ACTIVATE_SUPER_USER",
      "outputs": [],
      "stateMutability": "nonpayable",
      "type": "function"
    },
    {
      "inputs": [
        {
          "internalType": "string",
          "name": "vin",
          "type": "string"
        },
        {
          "internalType": "string",
          "name": "description",
          "type": "string"
        },
        {
          "internalType": "string[]",
          "name": "images",
          "type": "string[]"
        }
      ],
      "name": "addAccident",
      "outputs": [],
      "stateMutability": "nonpayable",
      "type": "function"
    },
    {
      "inputs": [
        {
          "internalType": "string",
          "name": "vin",
          "type": "string"
        },
        {
          "internalType": "string",
          "name": "brand",
          "type": "string"
        },
        {
          "internalType": "string",
          "name": "model",
          "type": "string"
        },
        {
          "internalType": "uint256",
          "name": "year",
          "type": "uint256"
        },
        {
          "internalType": "string",
          "name": "fuelType",
          "type": "string"
        },
        {
          "internalType": "string",
          "name": "transmissionType",
          "type": "string"
        },
        {
          "internalType": "string",
          "name": "color",
          "type": "string"
        },
        {
          "internalType": "string",
          "name": "configuration",
          "type": "string"
        },
        {
          "internalType": "string",
          "name": "country",
          "type": "string"
        },
        {
          "internalType": "address",
          "name": "owner",
          "type": "address"
        }
      ],
      "name": "addCar",
      "outputs": [],
      "stateMutability": "nonpayable",
      "type": "function"
    },
    {
      "inputs": [
        {
          "internalType": "address",
          "name": "dealer",
          "type": "address"
        }
      ],
      "name": "addDealer",
      "outputs": [],
      "stateMutability": "nonpayable",
      "type": "function"
    },
    {
      "inputs": [
        {
          "internalType": "string",
          "name": "vin",
          "type": "string"
        },
        {
          "internalType": "string[]",
          "name": "descriptions",
          "type": "string[]"
        },
        {
          "internalType": "uint256[]",
          "name": "amounts",
          "type": "uint256[]"
        }
      ],
      "name": "addFines",
      "outputs": [],
      "stateMutability": "nonpayable",
      "type": "function"
    },
    {
      "inputs": [
        {
          "internalType": "address",
          "name": "insuranceCompany",
          "type": "address"
        }
      ],
      "name": "addInsuranceCompany",
      "outputs": [],
      "stateMutability": "nonpayable",
      "type": "function"
    },
    {
      "inputs": [
        {
          "internalType": "string",
          "name": "vin",
          "type": "string"
        },
        {
          "internalType": "address",
          "name": "newOwner",
          "type": "address"
        }
      ],
      "name": "addNewOwner",
      "outputs": [],
      "stateMutability": "nonpayable",
      "type": "function"
    },
    {
      "inputs": [
        {
          "internalType": "string",
          "name": "vin",
          "type": "string"
        },
        {
          "internalType": "uint256",
          "name": "mileage",
          "type": "uint256"
        },
        {
          "internalType": "string[]",
          "name": "serviceWorks",
          "type": "string[]"
        }
      ],
      "name": "addServiceHistory",
      "outputs": [],
      "stateMutability": "nonpayable",
      "type": "function"
    },
    {
      "inputs": [
        {
          "internalType": "address",
          "name": "trafficPolice",
          "type": "address"
        }
      ],
      "name": "addTrafficPolice",
      "outputs": [],
      "stateMutability": "nonpayable",
      "type": "function"
    },
    {
      "inputs": [
        {
          "internalType": "string",
          "name": "vin",
          "type": "string"
        }
      ],
      "name": "buyReport",
      "outputs": [],
      "stateMutability": "payable",
      "type": "function"
    },
    {
      "inputs": [
        {
          "internalType": "string",
          "name": "vin",
          "type": "string"
        },
        {
          "internalType": "string",
          "name": "newPlateNumber",
          "type": "string"
        }
      ],
      "name": "changePlate",
      "outputs": [],
      "stateMutability": "nonpayable",
      "type": "function"
    },
    {
      "inputs": [
        {
          "internalType": "string",
          "name": "vin",
          "type": "string"
        }
      ],
      "name": "getCarInfo",
      "outputs": [
        {
          "components": [
            {
              "internalType": "string",
              "name": "brand",
              "type": "string"
            },
            {
              "internalType": "string",
              "name": "model",
              "type": "string"
            },
            {
              "internalType": "uint256",
              "name": "year",
              "type": "uint256"
            },
            {
              "internalType": "string",
              "name": "fuelType",
              "type": "string"
            },
            {
              "internalType": "string",
              "name": "transmissionType",
              "type": "string"
            },
            {
              "internalType": "string",
              "name": "color",
              "type": "string"
            },
            {
              "internalType": "string",
              "name": "configuration",
              "type": "string"
            },
            {
              "internalType": "string",
              "name": "country",
              "type": "string"
            },
            {
              "internalType": "string[]",
              "name": "plateNumbers",
              "type": "string[]"
            },
            {
              "internalType": "uint256",
              "name": "mileage",
              "type": "uint256"
            },
            {
              "internalType": "address[]",
              "name": "owners",
              "type": "address[]"
            },
            {
              "components": [
                {
                  "internalType": "uint256",
                  "name": "date",
                  "type": "uint256"
                },
                {
                  "internalType": "string",
                  "name": "description",
                  "type": "string"
                },
                {
                  "internalType": "uint256",
                  "name": "amount",
                  "type": "uint256"
                },
                {
                  "internalType": "bool",
                  "name": "paid",
                  "type": "bool"
                }
              ],
              "internalType": "struct CarTypes.Fine[]",
              "name": "fines",
              "type": "tuple[]"
            },
            {
              "components": [
                {
                  "internalType": "uint256",
                  "name": "date",
                  "type": "uint256"
                },
                {
                  "internalType": "uint256",
                  "name": "mileage",
                  "type": "uint256"
                },
                {
                  "internalType": "string[]",
                  "name": "works",
                  "type": "string[]"
                }
              ],
              "internalType": "struct CarTypes.ServiceWork[]",
              "name": "serviceHistory",
              "type": "tuple[]"
            },
            {
              "components": [
                {
                  "internalType": "uint256",
                  "name": "date",
                  "type": "uint256"
                },
                {
                  "internalType": "string",
                  "name": "description",
                  "type": "string"
                },
                {
                  "internalType": "string[]",
                  "name": "images",
                  "type": "string[]"
                }
              ],
              "internalType": "struct CarTypes.Accident[]",
              "name": "accidents",
              "type": "tuple[]"
            },
            {
              "components": [
                {
                  "internalType": "uint256",
                  "name": "date",
                  "type": "uint256"
                },
                {
                  "internalType": "bool",
                  "name": "isStolen",
                  "type": "bool"
                },
                {
                  "internalType": "string",
                  "name": "location",
                  "type": "string"
                }
              ],
              "internalType": "struct CarTypes.Theft[]",
              "name": "theftHistory",
              "type": "tuple[]"
            }
          ],
          "internalType": "struct CarTypes.Car",
          "name": "",
          "type": "tuple"
        }
      ],
      "stateMutability": "view",
      "type": "function"
    },
    {
      "inputs": [
        {
          "internalType": "string",
          "name": "vin",
          "type": "string"
        }
      ],
      "name": "isCarExists",
      "outputs": [
        {
          "internalType": "bool",
          "name": "",
          "type": "bool"
        }
      ],
      "stateMutability": "view",
      "type": "function"
    },
    {
      "inputs": [
        {
          "internalType": "string",
          "name": "vin",
          "type": "string"
        }
      ],
      "name": "isCarStolen",
      "outputs": [
        {
          "internalType": "bool",
          "name": "",
          "type": "bool"
        }
      ],
      "stateMutability": "view",
      "type": "function"
    },
    {
      "inputs": [
        {
          "internalType": "address",
          "name": "",
          "type": "address"
        }
      ],
      "name": "isDealer",
      "outputs": [
        {
          "internalType": "bool",
          "name": "",
          "type": "bool"
        }
      ],
      "stateMutability": "view",
      "type": "function"
    },
    {
      "inputs": [
        {
          "internalType": "address",
          "name": "",
          "type": "address"
        }
      ],
      "name": "isInsuranceCompany",
      "outputs": [
        {
          "internalType": "bool",
          "name": "",
          "type": "bool"
        }
      ],
      "stateMutability": "view",
      "type": "function"
    },
    {
      "inputs": [],
      "name": "isTestEnvironment",
      "outputs": [
        {
          "internalType": "bool",
          "name": "",
          "type": "bool"
        }
      ],
      "stateMutability": "view",
      "type": "function"
    },
    {
      "inputs": [
        {
          "internalType": "address",
          "name": "",
          "type": "address"
        }
      ],
      "name": "isTrafficPolice",
      "outputs": [
        {
          "internalType": "bool",
          "name": "",
          "type": "bool"
        }
      ],
      "stateMutability": "view",
      "type": "function"
    },
    {
      "inputs": [
        {
          "internalType": "string",
          "name": "vin",
          "type": "string"
        },
        {
          "internalType": "uint256",
          "name": "fineIndex",
          "type": "uint256"
        }
      ],
      "name": "markAsPaid",
      "outputs": [],
      "stateMutability": "nonpayable",
      "type": "function"
    },
    {
      "inputs": [
        {
          "internalType": "string",
          "name": "vin",
          "type": "string"
        },
        {
          "internalType": "uint256",
          "name": "fineIndex",
          "type": "uint256"
        }
      ],
      "name": "payFine",
      "outputs": [],
      "stateMutability": "payable",
      "type": "function"
    },
    {
      "inputs": [
        {
          "internalType": "string",
          "name": "vin",
          "type": "string"
        },
        {
          "internalType": "string",
          "name": "location",
          "type": "string"
        },
        {
          "internalType": "bool",
          "name": "isStolen",
          "type": "bool"
        }
      ],
      "name": "reportThieftState",
      "outputs": [],
      "stateMutability": "nonpayable",
      "type": "function"
    },
    {
      "inputs": [],
      "name": "state",
      "outputs": [
        {
          "internalType": "address payable",
          "name": "",
          "type": "address"
        }
      ],
      "stateMutability": "view",
      "type": "function"
    }
  ],
  "bytecode": "0x60806040523480156200001157600080fd5b506040516200426d3803806200426d833981016040819052620000349162000095565b6005805491151560ff19928316179055600180546001600160a01b03191633908117825560009081526002602090815260408083208054861685179055600382528083208054861685179055600490915290208054909216179055620000c0565b600060208284031215620000a857600080fd5b81518015158114620000b957600080fd5b9392505050565b61419d80620000d06000396000f3fe6080604052600436106101355760003560e01c8063aed22c85116100ab578063c19d93fb1161006f578063c19d93fb14610359578063d2fd921014610391578063d9198c92146103b1578063e2e46c3d146103d1578063f0661a64146103eb578063fe2e81d41461040b57600080fd5b8063aed22c85146102b7578063b5f56528146102d7578063b6202857146102ec578063ba7985261461030c578063bed439bd1461032c57600080fd5b806368da02e6116100fd57806368da02e6146101f45780636a7a5556146102075780636de198151461022757806375ad0c5c146102475780637d7ddf67146102675780638ece4f161461028757600080fd5b806306d6cb761461013a578063179173c61461015c57806326f72ae81461017c57806327da2a21146101c15780633fca8a0c146101d4575b600080fd5b34801561014657600080fd5b5061015a610155366004612edb565b61043b565b005b34801561016857600080fd5b5061015a610177366004612fb2565b610529565b34801561018857600080fd5b506101ac610197366004612edb565b60036020526000908152604090205460ff1681565b60405190151581526020015b60405180910390f35b61015a6101cf366004613015565b6107cc565b3480156101e057600080fd5b5061015a6101ef36600461310b565b610a9f565b61015a610202366004613192565b610cd8565b34801561021357600080fd5b506101ac610222366004613192565b610e15565b34801561023357600080fd5b5061015a6102423660046131ce565b610f0c565b34801561025357600080fd5b5061015a61026236600461324a565b61113b565b34801561027357600080fd5b5061015a6102823660046133a5565b6115ec565b34801561029357600080fd5b506101ac6102a2366004612edb565b60046020526000908152604090205460ff1681565b3480156102c357600080fd5b5061015a6102d2366004612edb565b6118bf565b3480156102e357600080fd5b5061015a6119a6565b3480156102f857600080fd5b506101ac610307366004613192565b611ae0565b34801561031857600080fd5b5061015a610327366004613482565b611b53565b34801561033857600080fd5b5061034c610347366004613192565b611d24565b6040516101b8919061377f565b34801561036557600080fd5b50600154610379906001600160a01b031681565b6040516001600160a01b0390911681526020016101b8565b34801561039d57600080fd5b5061015a6103ac366004613015565b61296d565b3480156103bd57600080fd5b5061015a6103cc366004613929565b612b43565b3480156103dd57600080fd5b506005546101ac9060ff1681565b3480156103f757600080fd5b5061015a610406366004612edb565b612d13565b34801561041757600080fd5b506101ac610426366004612edb565b60026020526000908152604090205460ff1681565b6001546001600160a01b0316331461046e5760405162461bcd60e51b815260040161046590613976565b60405180910390fd5b6001600160a01b03811660009081526002602052604090205460ff16156104ce5760405162461bcd60e51b81526020600482015260146024820152731119585b195c88185b1c9958591e48185919195960621b6044820152606401610465565b6001600160a01b038116600081815260026020908152604091829020805460ff1916600117905590519182527f98f3b9743e04ddffc992c14d8217e2d0467e51bbec660a88b2c756e6eebc4e6491015b60405180910390a150565b3360009081526004602052604090205460ff166105585760405162461bcd60e51b8152600401610465906139bc565b816000808260405161056a9190613a06565b908152604051908190036020019020600a01541161059a5760405162461bcd60e51b815260040161046590613a22565b60008251116105eb5760405162461bcd60e51b815260206004820152601c60248201527f506c617465206e756d6265722063616e6e6f7420626520656d707479000000006044820152606401610465565b600080846040516105fc9190613a06565b90815260405190819003602001902060080154111561073557816040516020016106269190613a06565b6040516020818303038152906040528051906020012060008460405161064c9190613a06565b9081526020016040518091039020600801600160008660405161066f9190613a06565b9081526040519081900360200190206008015461068c9190613a6d565b8154811061069c5761069c613a86565b906000526020600020016040516020016106b69190613ad0565b60405160208183030381529060405280519060200120036107355760405162461bcd60e51b815260206004820152603360248201527f4e657720706c617465206e756d626572206d75737420626520646966666572656044820152726e742066726f6d20746865206f6c64206f6e6560681b6064820152608401610465565b6000836040516107459190613a06565b9081526040516020918190038201902060080180546001810182556000918252919020016107738382613b95565b507f3c665ea8c393a3bc6472aadfda99f4c5b6da36b82a26426e67630956402e727e836000856040516107a69190613a06565b9081526040519081900360200181206107bf9291613f25565b60405180910390a1505050565b81600080826040516107de9190613a06565b908152604051908190036020019020600a01541161080e5760405162461bcd60e51b815260040161046590613a22565b60008360405161081e9190613a06565b9081526020016040518091039020600b01828154811061084057610840613a86565b90600052602060002090600402016002015434146108a05760405162461bcd60e51b815260206004820181905260248201527f4e6f7420656e6f756768206d6f6e657920746f20706179207468652066696e656044820152606401610465565b6000836040516108b09190613a06565b908152604051908190036020019020600b015482106108e15760405162461bcd60e51b815260040161046590614081565b6000836040516108f19190613a06565b9081526020016040518091039020600b01828154811061091357610913613a86565b600091825260209091206003600490920201015460ff16156109775760405162461bcd60e51b815260206004820152601a60248201527f46696e652068617320616c7265616479206265656e20706169640000000000006044820152606401610465565b6001546040516000916001600160a01b03169034908381818185875af1925050503d80600081146109c4576040519150601f19603f3d011682016040523d82523d6000602084013e6109c9565b606091505b50509050806109ea5760405162461bcd60e51b8152600401610465906140c4565b60016000856040516109fc9190613a06565b9081526020016040518091039020600b018481548110610a1e57610a1e613a86565b906000526020600020906004020160030160006101000a81548160ff0219169083151502179055507fb21623a55565c88769031f24290f8237ab02352259dfd629bfdc243a0684add984600086604051610a789190613a06565b908152604051908190036020018120610a919291613f25565b60405180910390a150505050565b3360009081526003602052604090205460ff16610b145760405162461bcd60e51b815260206004820152602d60248201527f4f6e6c7920696e737572616e636520636f6d70616e792063616e2063616c6c2060448201526c3a3434b990333ab731ba34b7b760991b6064820152608401610465565b8260008082604051610b269190613a06565b908152604051908190036020019020600a015411610b565760405162461bcd60e51b815260040161046590613a22565b6000835111610ba75760405162461bcd60e51b815260206004820152601b60248201527f4465736372697074696f6e2063616e6e6f7420626520656d70747900000000006044820152606401610465565b6000825111610bf15760405162461bcd60e51b8152602060048201526016602482015275496d616765732063616e6e6f7420626520656d70747960501b6044820152606401610465565b60408051606081018252428152602081018590528082018490529051600090610c1b908790613a06565b90815260405160209181900382019020600d01805460018082018355600092835291839020845160039092020190815591830151839291820190610c5f9082613b95565b5060408201518051610c7b916002840191602090910190612dfa565b5050507f695a51373c32d5a1c8d7780f4091f8641606ac018555afe47f30984a1391914785600087604051610cb09190613a06565b908152604051908190036020018120610cc99291613f25565b60405180910390a15050505050565b8060008082604051610cea9190613a06565b908152604051908190036020019020600a015411610d1a5760405162461bcd60e51b815260040161046590613a22565b34662386f26fc1000014610d705760405162461bcd60e51b815260206004820152601e60248201527f4e6f7420656e6f756768206d6f6e657920746f20627579207265706f727400006044820152606401610465565b6001546040516000916001600160a01b03169034908381818185875af1925050503d8060008114610dbd576040519150601f19603f3d011682016040523d82523d6000602084013e610dc2565b606091505b5050905080610de35760405162461bcd60e51b8152600401610465906140c4565b7f5563b2f622e18f06e5c93366a0691f68ba756dfee65829c82ee9c9bbfb2dda95836000856040516107a69190613a06565b60008160008082604051610e299190613a06565b908152604051908190036020019020600a015411610e595760405162461bcd60e51b815260040161046590613a22565b600083604051610e699190613a06565b908152604051908190036020019020600e0154600003610e8c5760009150610f06565b600083604051610e9c9190613a06565b9081526020016040518091039020600e016001600085604051610ebf9190613a06565b908152604051908190036020019020600e0154610edc9190613a6d565b81548110610eec57610eec613a86565b600091825260209091206001600390920201015460ff1691505b50919050565b3360009081526004602052604090205460ff16610f3b5760405162461bcd60e51b8152600401610465906139bc565b8260008082604051610f4d9190613a06565b908152604051908190036020019020600a015411610f7d5760405162461bcd60e51b815260040161046590613a22565b81610fd357610f8b84610e15565b610fce5760405162461bcd60e51b815260206004820152601460248201527310d85c881a5cc8185b1c9958591e48199bdd5b9960621b6044820152606401610465565b611021565b610fdc84610e15565b156110215760405162461bcd60e51b815260206004820152601560248201527421b0b91034b99030b63932b0b23c9039ba37b632b760591b6044820152606401610465565b6000846040516110319190613a06565b9081526040805160209281900383018120606082018352428252851515848301908152928201878152600e90910180546001808201835560009283529590912083516003909202019081559251938301805460ff191694151594909417909355915160028201906110a29082613b95565b5050508115611103577fb6083c226f465ecb47d1dcd760e793aa5fa8b1f242a9cc00eaf7cd0808f139cd846000866040516110dd9190613a06565b9081526040519081900360200181206110f69291613f25565b60405180910390a1611135565b7fb5e14d4a79b21570accf36c85fec825a31a07348cbb1f60f598c43c0a5a41db184600086604051610a789190613a06565b50505050565b3360009081526002602052604090205460ff1661116a5760405162461bcd60e51b81526004016104659061410c565b60008a51116111b15760405162461bcd60e51b815260206004820152601360248201527256494e2063616e6e6f7420626520656d70747960681b6044820152606401610465565b60008951116111fa5760405162461bcd60e51b81526020600482015260156024820152744272616e642063616e6e6f7420626520656d70747960581b6044820152606401610465565b60008851116112435760405162461bcd60e51b81526020600482015260156024820152744d6f64656c2063616e6e6f7420626520656d70747960581b6044820152606401610465565b600087116112935760405162461bcd60e51b815260206004820152601b60248201527f59656172206d7573742062652067726561746572207468616e203000000000006044820152606401610465565b60008651116112e45760405162461bcd60e51b815260206004820152601960248201527f4675656c20747970652063616e6e6f7420626520656d707479000000000000006044820152606401610465565b600085511161133f5760405162461bcd60e51b815260206004820152602160248201527f5472616e736d697373696f6e20747970652063616e6e6f7420626520656d70746044820152607960f81b6064820152608401610465565b60008451116113885760405162461bcd60e51b8152602060048201526015602482015274436f6c6f722063616e6e6f7420626520656d70747960581b6044820152606401610465565b60008351116113d95760405162461bcd60e51b815260206004820152601d60248201527f436f6e66696775726174696f6e2063616e6e6f7420626520656d7074790000006044820152606401610465565b600082511161142a5760405162461bcd60e51b815260206004820152601760248201527f436f756e7472792063616e6e6f7420626520656d7074790000000000000000006044820152606401610465565b6001600160a01b0381166114785760405162461bcd60e51b81526020600482015260156024820152744f776e65722063616e6e6f7420626520656d70747960581b6044820152606401610465565b6114818a611ae0565b156114ce5760405162461bcd60e51b815260206004820181905260248201527f436172207769746820746869732056494e20616c7265616479206578697374736044820152606401610465565b6000808b6040516114df9190613a06565b9081526040519081900360200190209050806114fb8b82613b95565b506001810161150a8a82613b95565b5060028101889055600381016115208882613b95565b506004810161152f8782613b95565b506005810161153e8682613b95565b506006810161154d8582613b95565b506007810161155c8482613b95565b50600a810180546001810182556000918252602082200180546001600160a01b0319166001600160a01b0385161790556040517febba2f5b7d3419f72b9df3c37a7fe7455c28fa49338d9368bdd11b2fddc33d6c918d916115be908390613a06565b9081526040519081900360200181206115d79291613f25565b60405180910390a15050505050505050505050565b3360009081526004602052604090205460ff1661161b5760405162461bcd60e51b8152600401610465906139bc565b826000808260405161162d9190613a06565b908152604051908190036020019020600a01541161165d5760405162461bcd60e51b815260040161046590613a22565b81518351146116c75760405162461bcd60e51b815260206004820152603060248201527f4465736372697074696f6e7320616e6420616d6f756e7473206d75737420626560448201526f040e8d0ca40e6c2daca40d8cadccee8d60831b6064820152608401610465565b60005b835181101561188c5760008482815181106116e7576116e7613a86565b6020026020010151511161173d5760405162461bcd60e51b815260206004820152601b60248201527f4465736372697074696f6e2063616e6e6f7420626520656d70747900000000006044820152606401610465565b600083828151811061175157611751613a86565b6020026020010151116117a65760405162461bcd60e51b815260206004820152601d60248201527f416d6f756e74206d7573742062652067726561746572207468616e20300000006044820152606401610465565b600060405180608001604052804281526020018684815181106117cb576117cb613a86565b602002602001015181526020018584815181106117ea576117ea613a86565b602002602001015181526020016000151581525090506000866040516118109190613a06565b90815260405160209181900382019020600b018054600180820183556000928352918390208451600490920201908155918301518392918201906118549082613b95565b50604082015160028201556060909101516003909101805460ff191691151591909117905550806118848161414e565b9150506116ca565b507f32fa0333338c1a2d433c8285ebcb3ffa42314cda00b282810503c30a00f20acb84600086604051610a789190613a06565b6001546001600160a01b031633146118e95760405162461bcd60e51b815260040161046590613976565b6001600160a01b03811660009081526003602052604090205460ff16156119525760405162461bcd60e51b815260206004820152601f60248201527f496e737572616e636520636f6d70616e7920616c7265616479206164646564006044820152606401610465565b6001600160a01b038116600081815260036020908152604091829020805460ff1916600117905590519182527f764eab19189128bc621923fc04d93a7fa85cdc401d2d2815858f3d3db6e5fd59910161051e565b60055460ff166119f85760405162461bcd60e51b815260206004820152601960248201527f4f6e6c7920666f722074657374696e6720707572706f736573000000000000006044820152606401610465565b3360009081526002602052604090205460ff168015611a2657503360009081526003602052604090205460ff165b8015611a4157503360009081526004602052604090205460ff165b15611a9d5760405162461bcd60e51b815260206004820152602660248201527f4164647265737320697320616c726561647920616c6c6f77656420746f2062656044820152651030b236b4b760d11b6064820152608401610465565b3360009081526002602090815260408083208054600160ff1991821681179092556003845282852080548216831790556004909352922080549091169091179055565b600080825111611b285760405162461bcd60e51b815260206004820152601360248201527256494e2063616e6e6f7420626520656d70747960681b6044820152606401610465565b60008083604051611b399190613a06565b908152604051908190036020019020600a01541192915050565b3360009081526002602052604090205460ff16611b825760405162461bcd60e51b81526004016104659061410c565b8260008082604051611b949190613a06565b908152604051908190036020019020600a015411611bc45760405162461bcd60e51b815260040161046590613a22565b82600085604051611bd59190613a06565b90815260200160405180910390206009015410611c455760405162461bcd60e51b815260206004820152602860248201527f4e6577206d696c65616765206d7573742062652067726561746572207468616e604482015267206f6c64206f6e6560c01b6064820152608401610465565b82600085604051611c569190613a06565b90815260200160405180910390206009018190555060006040518060600160405280428152602001858152602001848152509050600085604051611c9a9190613a06565b9081526040805160209281900383019020600c01805460018082018355600092835291849020855160039092020190815584840151918101919091559083015180518493611cef926002850192910190612dfa565b5050507f78ee5592fa9882cdef6db84995e637efc43b9b3c875b5a0e1a86714922d9cb9185600087604051610cb09190613a06565b611d9d604051806101e001604052806060815260200160608152602001600081526020016060815260200160608152602001606081526020016060815260200160608152602001606081526020016000815260200160608152602001606081526020016060815260200160608152602001606081525090565b8160008082604051611daf9190613a06565b908152604051908190036020019020600a015411611ddf5760405162461bcd60e51b815260040161046590613a22565b3360009081526002602052604090205460ff1680611e0c57503360009081526003602052604090205460ff165b80611e2657503360009081526004602052604090205460ff165b611ea85760405162461bcd60e51b815260206004820152604760248201527f4f6e6c79206465616c65722c20696e737572616e636520636f6d70616e79206f60448201527f72207472616666696320706f6c6963652063616e2063616c6c207468697320666064820152663ab731ba34b7b760c91b608482015260a401610465565b600083604051611eb89190613a06565b9081526020016040518091039020604051806101e0016040529081600082018054611ee290613a9c565b80601f0160208091040260200160405190810160405280929190818152602001828054611f0e90613a9c565b8015611f5b5780601f10611f3057610100808354040283529160200191611f5b565b820191906000526020600020905b815481529060010190602001808311611f3e57829003601f168201915b50505050508152602001600182018054611f7490613a9c565b80601f0160208091040260200160405190810160405280929190818152602001828054611fa090613a9c565b8015611fed5780601f10611fc257610100808354040283529160200191611fed565b820191906000526020600020905b815481529060010190602001808311611fd057829003601f168201915b505050505081526020016002820154815260200160038201805461201090613a9c565b80601f016020809104026020016040519081016040528092919081815260200182805461203c90613a9c565b80156120895780601f1061205e57610100808354040283529160200191612089565b820191906000526020600020905b81548152906001019060200180831161206c57829003601f168201915b505050505081526020016004820180546120a290613a9c565b80601f01602080910402602001604051908101604052809291908181526020018280546120ce90613a9c565b801561211b5780601f106120f05761010080835404028352916020019161211b565b820191906000526020600020905b8154815290600101906020018083116120fe57829003601f168201915b5050505050815260200160058201805461213490613a9c565b80601f016020809104026020016040519081016040528092919081815260200182805461216090613a9c565b80156121ad5780601f10612182576101008083540402835291602001916121ad565b820191906000526020600020905b81548152906001019060200180831161219057829003601f168201915b505050505081526020016006820180546121c690613a9c565b80601f01602080910402602001604051908101604052809291908181526020018280546121f290613a9c565b801561223f5780601f106122145761010080835404028352916020019161223f565b820191906000526020600020905b81548152906001019060200180831161222257829003601f168201915b5050505050815260200160078201805461225890613a9c565b80601f016020809104026020016040519081016040528092919081815260200182805461228490613a9c565b80156122d15780601f106122a6576101008083540402835291602001916122d1565b820191906000526020600020905b8154815290600101906020018083116122b457829003601f168201915b5050505050815260200160088201805480602002602001604051908101604052809291908181526020016000905b828210156123ab57838290600052602060002001805461231e90613a9c565b80601f016020809104026020016040519081016040528092919081815260200182805461234a90613a9c565b80156123975780601f1061236c57610100808354040283529160200191612397565b820191906000526020600020905b81548152906001019060200180831161237a57829003601f168201915b5050505050815260200190600101906122ff565b50505050815260200160098201548152602001600a820180548060200260200160405190810160405280929190818152602001828054801561241657602002820191906000526020600020905b81546001600160a01b031681526001909101906020018083116123f8575b50505050508152602001600b8201805480602002602001604051908101604052809291908181526020016000905b8282101561253157838290600052602060002090600402016040518060800160405290816000820154815260200160018201805461248190613a9c565b80601f01602080910402602001604051908101604052809291908181526020018280546124ad90613a9c565b80156124fa5780601f106124cf576101008083540402835291602001916124fa565b820191906000526020600020905b8154815290600101906020018083116124dd57829003601f168201915b5050509183525050600282015460208083019190915260039092015460ff1615156040909101529082526001929092019101612444565b505050508152602001600c8201805480602002602001604051908101604052809291908181526020016000905b8282101561267d5783829060005260206000209060030201604051806060016040529081600082015481526020016001820154815260200160028201805480602002602001604051908101604052809291908181526020016000905b828210156126665783829060005260206000200180546125d990613a9c565b80601f016020809104026020016040519081016040528092919081815260200182805461260590613a9c565b80156126525780601f1061262757610100808354040283529160200191612652565b820191906000526020600020905b81548152906001019060200180831161263557829003601f168201915b5050505050815260200190600101906125ba565b50505050815250508152602001906001019061255e565b505050508152602001600d8201805480602002602001604051908101604052809291908181526020016000905b828210156128515783829060005260206000209060030201604051806060016040529081600082015481526020016001820180546126e790613a9c565b80601f016020809104026020016040519081016040528092919081815260200182805461271390613a9c565b80156127605780601f1061273557610100808354040283529160200191612760565b820191906000526020600020905b81548152906001019060200180831161274357829003601f168201915b5050505050815260200160028201805480602002602001604051908101604052809291908181526020016000905b8282101561283a5783829060005260206000200180546127ad90613a9c565b80601f01602080910402602001604051908101604052809291908181526020018280546127d990613a9c565b80156128265780601f106127fb57610100808354040283529160200191612826565b820191906000526020600020905b81548152906001019060200180831161280957829003601f168201915b50505050508152602001906001019061278e565b5050505081525050815260200190600101906126aa565b505050508152602001600e8201805480602002602001604051908101604052809291908181526020016000905b8282101561295e576000848152602090819020604080516060810182526003860290920180548352600181015460ff16151593830193909352600283018054929392918401916128cd90613a9c565b80601f01602080910402602001604051908101604052809291908181526020018280546128f990613a9c565b80156129465780601f1061291b57610100808354040283529160200191612946565b820191906000526020600020905b81548152906001019060200180831161292957829003601f168201915b5050505050815250508152602001906001019061287e565b50505091525090949350505050565b3360009081526004602052604090205460ff1661299c5760405162461bcd60e51b8152600401610465906139bc565b81600080826040516129ae9190613a06565b908152604051908190036020019020600a0154116129de5760405162461bcd60e51b815260040161046590613a22565b6000836040516129ee9190613a06565b908152604051908190036020019020600b01548210612a1f5760405162461bcd60e51b815260040161046590614081565b600083604051612a2f9190613a06565b9081526020016040518091039020600b018281548110612a5157612a51613a86565b600091825260209091206003600490920201015460ff1615612ab55760405162461bcd60e51b815260206004820152601a60248201527f46696e652068617320616c7265616479206265656e20706169640000000000006044820152606401610465565b6001600084604051612ac79190613a06565b9081526020016040518091039020600b018381548110612ae957612ae9613a86565b906000526020600020906004020160030160006101000a81548160ff0219169083151502179055507fb21623a55565c88769031f24290f8237ab02352259dfd629bfdc243a0684add9836000856040516107a69190613a06565b3360009081526004602052604090205460ff16612b725760405162461bcd60e51b8152600401610465906139bc565b8160008082604051612b849190613a06565b908152604051908190036020019020600a015411612bb45760405162461bcd60e51b815260040161046590613a22565b816001600160a01b0316600084604051612bce9190613a06565b9081526020016040518091039020600a016001600086604051612bf19190613a06565b908152604051908190036020019020600a0154612c0e9190613a6d565b81548110612c1e57612c1e613a86565b6000918252602090912001546001600160a01b031603612c955760405162461bcd60e51b815260206004820152602c60248201527f4e6577206f776e6572206d75737420626520646966666572656e742066726f6d60448201526b20746865206f6c64206f6e6560a01b6064820152608401610465565b600083604051612ca59190613a06565b90815260405160209181900382018120600a018054600181018255600091825292812090920180546001600160a01b0319166001600160a01b0386161790557f5cd6fee90bd2023135aae7b97da039cdade4ce859a59bee8bab21245235dfad19185916107a6908390613a06565b6001546001600160a01b03163314612d3d5760405162461bcd60e51b815260040161046590613976565b6001600160a01b03811660009081526004602052604090205460ff1615612da65760405162461bcd60e51b815260206004820152601c60248201527f5472616666696320706f6c69636520616c7265616479206164646564000000006044820152606401610465565b6001600160a01b038116600081815260046020908152604091829020805460ff1916600117905590519182527fec92f699a94eed37aee06c2a34a212ed6ad617208e93fdc318283fea06a61ed7910161051e565b828054828255906000526020600020908101928215612e40579160200282015b82811115612e405782518290612e309082613b95565b5091602001919060010190612e1a565b50612e4c929150612e50565b5090565b80821115612e4c576000612e648282612e6d565b50600101612e50565b508054612e7990613a9c565b6000825580601f10612e89575050565b601f016020900490600052602060002090810190612ea79190612eaa565b50565b5b80821115612e4c5760008155600101612eab565b80356001600160a01b0381168114612ed657600080fd5b919050565b600060208284031215612eed57600080fd5b612ef682612ebf565b9392505050565b634e487b7160e01b600052604160045260246000fd5b604051601f8201601f191681016001600160401b0381118282101715612f3b57612f3b612efd565b604052919050565b600082601f830112612f5457600080fd5b81356001600160401b03811115612f6d57612f6d612efd565b612f80601f8201601f1916602001612f13565b818152846020838601011115612f9557600080fd5b816020850160208301376000918101602001919091529392505050565b60008060408385031215612fc557600080fd5b82356001600160401b0380821115612fdc57600080fd5b612fe886838701612f43565b93506020850135915080821115612ffe57600080fd5b5061300b85828601612f43565b9150509250929050565b6000806040838503121561302857600080fd5b82356001600160401b0381111561303e57600080fd5b61304a85828601612f43565b95602094909401359450505050565b60006001600160401b0382111561307257613072612efd565b5060051b60200190565b600082601f83011261308d57600080fd5b813560206130a261309d83613059565b612f13565b82815260059290921b840181019181810190868411156130c157600080fd5b8286015b848110156131005780356001600160401b038111156130e45760008081fd5b6130f28986838b0101612f43565b8452509183019183016130c5565b509695505050505050565b60008060006060848603121561312057600080fd5b83356001600160401b038082111561313757600080fd5b61314387838801612f43565b9450602086013591508082111561315957600080fd5b61316587838801612f43565b9350604086013591508082111561317b57600080fd5b506131888682870161307c565b9150509250925092565b6000602082840312156131a457600080fd5b81356001600160401b038111156131ba57600080fd5b6131c684828501612f43565b949350505050565b6000806000606084860312156131e357600080fd5b83356001600160401b03808211156131fa57600080fd5b61320687838801612f43565b9450602086013591508082111561321c57600080fd5b5061322986828701612f43565b9250506040840135801515811461323f57600080fd5b809150509250925092565b6000806000806000806000806000806101408b8d03121561326a57600080fd5b8a356001600160401b038082111561328157600080fd5b61328d8e838f01612f43565b9b5060208d01359150808211156132a357600080fd5b6132af8e838f01612f43565b9a5060408d01359150808211156132c557600080fd5b6132d18e838f01612f43565b995060608d0135985060808d01359150808211156132ee57600080fd5b6132fa8e838f01612f43565b975060a08d013591508082111561331057600080fd5b61331c8e838f01612f43565b965060c08d013591508082111561333257600080fd5b61333e8e838f01612f43565b955060e08d013591508082111561335457600080fd5b6133608e838f01612f43565b94506101008d013591508082111561337757600080fd5b506133848d828e01612f43565b9250506133946101208c01612ebf565b90509295989b9194979a5092959850565b6000806000606084860312156133ba57600080fd5b83356001600160401b03808211156133d157600080fd5b6133dd87838801612f43565b94506020915081860135818111156133f457600080fd5b6134008882890161307c565b94505060408601358181111561341557600080fd5b86019050601f8101871361342857600080fd5b803561343661309d82613059565b81815260059190911b8201830190838101908983111561345557600080fd5b928401925b828410156134735783358252928401929084019061345a565b80955050505050509250925092565b60008060006060848603121561349757600080fd5b83356001600160401b03808211156134ae57600080fd5b6134ba87838801612f43565b945060208601359350604086013591508082111561317b57600080fd5b60005b838110156134f25781810151838201526020016134da565b50506000910152565b600081518084526135138160208601602086016134d7565b601f01601f19169290920160200192915050565b600081518084526020808501808196508360051b8101915082860160005b8581101561356f57828403895261355d8483516134fb565b98850198935090840190600101613545565b5091979650505050505050565b600081518084526020808501945080840160005b838110156135b55781516001600160a01b031687529582019590820190600101613590565b509495945050505050565b600081518084526020808501808196508360051b8101915082860160005b8581101561356f5782840389528151608081518652868201518188880152613608828801826134fb565b6040848101519089015260609384015115159390970192909252505097840197908401906001016135de565b600081518084526020808501808196508360051b8101915082860160005b8581101561356f578284038952815180518552858101518686015260409081015160609186018290529061368881870183613527565b9a87019a9550505090840190600101613652565b600081518084526020808501808196508360051b8101915082860160005b8581101561356f57828403895281516060815186528682015181888801526136e4828801826134fb565b915050604080830151925086820381880152506137018183613527565b9a87019a95505050908401906001016136ba565b600081518084526020808501808196508360051b8101915082860160005b8581101561356f5782840389528151805185528581015115158686015260409081015160609186018290529061376b818701836134fb565b9a87019a9550505090840190600101613733565b60208152600082516101e080602085015261379e6102008501836134fb565b91506020850151601f19808685030160408701526137bc84836134fb565b93506040870151606087015260608701519150808685030160808701526137e384836134fb565b935060808701519150808685030160a087015261380084836134fb565b935060a08701519150808685030160c087015261381d84836134fb565b935060c08701519150808685030160e087015261383a84836134fb565b935060e0870151915061010081878603018188015261385985846134fb565b9450808801519250506101208187860301818801526138788584613527565b9450808801519250506101408281880152808801519250506101608187860301818801526138a6858461357c565b9450808801519250506101808187860301818801526138c585846135c0565b9450808801519250506101a08187860301818801526138e48584613634565b9450808801519250506101c0818786030181880152613903858461369c565b90880151878203909201848801529350905061391f8382613715565b9695505050505050565b6000806040838503121561393c57600080fd5b82356001600160401b0381111561395257600080fd5b61395e85828601612f43565b92505061396d60208401612ebf565b90509250929050565b60208082526026908201527f4f6e6c7920676f7665726e6d656e742063616e2063616c6c20746869732066756040820152653731ba34b7b760d11b606082015260800190565b6020808252602a908201527f4f6e6c79207472616666696320706f6c6963652063616e2063616c6c207468696040820152693990333ab731ba34b7b760b11b606082015260800190565b60008251613a188184602087016134d7565b9190910192915050565b6020808252818101527f436172207769746820746869732056494e20646f6573206e6f74206578697374604082015260600190565b634e487b7160e01b600052601160045260246000fd5b81810381811115613a8057613a80613a57565b92915050565b634e487b7160e01b600052603260045260246000fd5b600181811c90821680613ab057607f821691505b602082108103610f0657634e487b7160e01b600052602260045260246000fd5b6000808354613ade81613a9c565b60018281168015613af65760018114613b0b57613b3a565b60ff1984168752821515830287019450613b3a565b8760005260208060002060005b85811015613b315781548a820152908401908201613b18565b50505082870194505b50929695505050505050565b601f821115613b9057600081815260208120601f850160051c81016020861015613b6d5750805b601f850160051c820191505b81811015613b8c57828155600101613b79565b5050505b505050565b81516001600160401b03811115613bae57613bae612efd565b613bc281613bbc8454613a9c565b84613b46565b602080601f831160018114613bf75760008415613bdf5750858301515b600019600386901b1c1916600185901b178555613b8c565b600085815260208120601f198616915b82811015613c2657888601518255948401946001909101908401613c07565b5085821015613c445787850151600019600388901b60f8161c191681555b5050505050600190811b01905550565b60008154613c6181613a9c565b808552602060018381168015613c7e5760018114613c9857613cc6565b60ff1985168884015283151560051b880183019550613cc6565b866000528260002060005b85811015613cbe5781548a8201860152908301908401613ca3565b890184019650505b505050505092915050565b600081548084526020808501808196508360051b81019150856000528260002060005b8581101561356f578284038952613d0b8483613c54565b98850198935060019182019101613cf4565b6000815480845260208085019450836000528060002060005b838110156135b55781546001600160a01b031687529582019560019182019101613d36565b600081548084526020808501808196508360051b81019150856000528260002060005b8581101561356f5782840389526080825485528086860152613da581860160018501613c54565b60028401546040870152600384015460ff1615156060909601959095525097840197600490910190600101613d7e565b600081548084526020808501808196508360051b81019150856000528260002060005b8581101561356f578284038952606082548552600183015486860152806040860152613e2981860160028501613cd1565b9986019994505060039190910190600101613df8565b600081548084526020808501808196508360051b81019150856000528260002060005b8581101561356f5782840389526060825485528086860152613e8981860160018501613c54565b90508481036040860152613ea08160028501613cd1565b9986019994505060039190910190600101613e62565b600081548084526020808501808196508360051b81019150856000528260002060005b8581101561356f57828403895260608254855260ff600184015416151586860152806040860152613f0f81860160028501613c54565b9986019994505060039190910190600101613ed9565b604081526000613f3860408301856134fb565b82810360208401526101e0808252613f5281830186613c54565b90508181036020830152613f698160018701613c54565b9050600285015460408301528181036060830152613f8a8160038701613c54565b90508181036080830152613fa18160048701613c54565b905081810360a0830152613fb88160058701613c54565b905081810360c0830152613fcf8160068701613c54565b905081810360e0830152613fe68160078701613c54565b9050818103610100830152613ffe8160088701613cd1565b9050600985015461012083015281810361014083015261402181600a8701613d1d565b905081810361016083015261403981600b8701613d5b565b905081810361018083015261405181600c8701613dd5565b90508181036101a083015261406981600d8701613e3f565b90508181036101c083015261391f81600e8701613eb6565b60208082526023908201527f46696e652077697468207468697320696e64657820646f6573206e6f742065786040820152621a5cdd60ea1b606082015260800190565b60208082526028908201527f556e61626c6520746f2073656e642076616c75652c207472616e73616374696f6040820152671b8819985a5b195960c21b606082015260800190565b60208082526022908201527f4f6e6c79206465616c65722063616e2063616c6c20746869732066756e63746960408201526137b760f11b606082015260800190565b60006001820161416057614160613a57565b506001019056fea26469706673582212205158db8f8bfb28e55d94787b43430def8f8b0011070edd8b903725cd2b5ea72d64736f6c63430008140033",
  "linkReferences": {},
  "deployedLinkReferences": {}
}