{
  "_format": "hh-sol-artifact-1",
  "contractName": "CarInfo",
  "sourceName": "contracts/CarInfo.sol",
  "abi": [
    {
      "inputs": [],
      "stateMutability": "nonpayable",
      "type": "constructor"
    },
    {
      "anonymous": false,
      "inputs": [
        {
          "indexed": false,
          "internalType": "string",
          "name": "vin",
          "type": "string"
        },
        {
          "indexed": false,
          "internalType": "string",
          "name": "accidentDescription",
          "type": "string"
        },
        {
          "indexed": false,
          "internalType": "string[]",
          "name": "accidentsImages",
          "type": "string[]"
        }
      ],
      "name": "AccidentAdded",
      "type": "event"
    },
    {
      "anonymous": false,
      "inputs": [
        {
          "indexed": false,
          "internalType": "string",
          "name": "vin",
          "type": "string"
        },
        {
          "indexed": false,
          "internalType": "string",
          "name": "brand",
          "type": "string"
        },
        {
          "indexed": false,
          "internalType": "string",
          "name": "model",
          "type": "string"
        },
        {
          "indexed": false,
          "internalType": "uint256",
          "name": "year",
          "type": "uint256"
        },
        {
          "indexed": false,
          "internalType": "string",
          "name": "fuelType",
          "type": "string"
        },
        {
          "indexed": false,
          "internalType": "string",
          "name": "transmissionType",
          "type": "string"
        },
        {
          "indexed": false,
          "internalType": "string",
          "name": "color",
          "type": "string"
        },
        {
          "indexed": false,
          "internalType": "string",
          "name": "configuration",
          "type": "string"
        },
        {
          "indexed": false,
          "internalType": "string",
          "name": "country",
          "type": "string"
        },
        {
          "indexed": false,
          "internalType": "address",
          "name": "owner",
          "type": "address"
        }
      ],
      "name": "CarAdded",
      "type": "event"
    },
    {
      "anonymous": false,
      "inputs": [
        {
          "indexed": false,
          "internalType": "string",
          "name": "vin",
          "type": "string"
        },
        {
          "indexed": false,
          "internalType": "string",
          "name": "location",
          "type": "string"
        }
      ],
      "name": "CarReportedFound",
      "type": "event"
    },
    {
      "anonymous": false,
      "inputs": [
        {
          "indexed": false,
          "internalType": "string",
          "name": "vin",
          "type": "string"
        },
        {
          "indexed": false,
          "internalType": "string",
          "name": "location",
          "type": "string"
        }
      ],
      "name": "CarReportedStolen",
      "type": "event"
    },
    {
      "anonymous": false,
      "inputs": [
        {
          "indexed": false,
          "internalType": "address",
          "name": "dealer",
          "type": "address"
        }
      ],
      "name": "DealerAdded",
      "type": "event"
    },
    {
      "anonymous": false,
      "inputs": [
        {
          "indexed": false,
          "internalType": "string",
          "name": "vin",
          "type": "string"
        },
        {
          "indexed": false,
          "internalType": "uint256",
          "name": "fineIndex",
          "type": "uint256"
        }
      ],
      "name": "FinePaid",
      "type": "event"
    },
    {
      "anonymous": false,
      "inputs": [
        {
          "indexed": false,
          "internalType": "string",
          "name": "vin",
          "type": "string"
        },
        {
          "indexed": false,
          "internalType": "string[]",
          "name": "fineDescriptions",
          "type": "string[]"
        },
        {
          "indexed": false,
          "internalType": "uint256[]",
          "name": "fineAmounts",
          "type": "uint256[]"
        }
      ],
      "name": "FinesAdded",
      "type": "event"
    },
    {
      "anonymous": false,
      "inputs": [
        {
          "indexed": false,
          "internalType": "address",
          "name": "insuranceCompany",
          "type": "address"
        }
      ],
      "name": "InsuranceCompanyAdded",
      "type": "event"
    },
    {
      "anonymous": false,
      "inputs": [
        {
          "indexed": false,
          "internalType": "string",
          "name": "vin",
          "type": "string"
        },
        {
          "indexed": false,
          "internalType": "address",
          "name": "newOwner",
          "type": "address"
        }
      ],
      "name": "NewOwnerAdded",
      "type": "event"
    },
    {
      "anonymous": false,
      "inputs": [
        {
          "indexed": false,
          "internalType": "string",
          "name": "vin",
          "type": "string"
        },
        {
          "indexed": false,
          "internalType": "string",
          "name": "newPlateNumber",
          "type": "string"
        }
      ],
      "name": "PlateChanged",
      "type": "event"
    },
    {
      "anonymous": false,
      "inputs": [
        {
          "indexed": false,
          "internalType": "string",
          "name": "vin",
          "type": "string"
        },
        {
          "indexed": false,
          "internalType": "uint256",
          "name": "mileage",
          "type": "uint256"
        },
        {
          "indexed": false,
          "internalType": "string[]",
          "name": "serviceWorks",
          "type": "string[]"
        }
      ],
      "name": "ServiceHistoryUpdated",
      "type": "event"
    },
    {
      "anonymous": false,
      "inputs": [
        {
          "indexed": false,
          "internalType": "address",
          "name": "trafficPolice",
          "type": "address"
        }
      ],
      "name": "TrafficPoliceAdded",
      "type": "event"
    },
    {
      "inputs": [],
      "name": "ACTIVATE_SUPER_USER",
      "outputs": [],
      "stateMutability": "nonpayable",
      "type": "function"
    },
    {
      "inputs": [
        {
          "internalType": "string",
          "name": "vin",
          "type": "string"
        },
        {
          "internalType": "string",
          "name": "accidentDescription",
          "type": "string"
        },
        {
          "internalType": "string[]",
          "name": "accidentsImages",
          "type": "string[]"
        }
      ],
      "name": "addAccident",
      "outputs": [],
      "stateMutability": "nonpayable",
      "type": "function"
    },
    {
      "inputs": [
        {
          "internalType": "string",
          "name": "vin",
          "type": "string"
        },
        {
          "internalType": "string",
          "name": "brand",
          "type": "string"
        },
        {
          "internalType": "string",
          "name": "model",
          "type": "string"
        },
        {
          "internalType": "uint256",
          "name": "year",
          "type": "uint256"
        },
        {
          "internalType": "string",
          "name": "fuelType",
          "type": "string"
        },
        {
          "internalType": "string",
          "name": "transmissionType",
          "type": "string"
        },
        {
          "internalType": "string",
          "name": "color",
          "type": "string"
        },
        {
          "internalType": "string",
          "name": "configuration",
          "type": "string"
        },
        {
          "internalType": "string",
          "name": "country",
          "type": "string"
        },
        {
          "internalType": "address",
          "name": "owner",
          "type": "address"
        }
      ],
      "name": "addCar",
      "outputs": [],
      "stateMutability": "nonpayable",
      "type": "function"
    },
    {
      "inputs": [
        {
          "internalType": "address",
          "name": "dealer",
          "type": "address"
        }
      ],
      "name": "addDealer",
      "outputs": [],
      "stateMutability": "nonpayable",
      "type": "function"
    },
    {
      "inputs": [
        {
          "internalType": "string",
          "name": "vin",
          "type": "string"
        },
        {
          "internalType": "string[]",
          "name": "fineDescriptions",
          "type": "string[]"
        },
        {
          "internalType": "uint256[]",
          "name": "fineAmounts",
          "type": "uint256[]"
        }
      ],
      "name": "addFines",
      "outputs": [],
      "stateMutability": "nonpayable",
      "type": "function"
    },
    {
      "inputs": [
        {
          "internalType": "address",
          "name": "insuranceCompany",
          "type": "address"
        }
      ],
      "name": "addInsuranceCompany",
      "outputs": [],
      "stateMutability": "nonpayable",
      "type": "function"
    },
    {
      "inputs": [
        {
          "internalType": "string",
          "name": "vin",
          "type": "string"
        },
        {
          "internalType": "address",
          "name": "newOwner",
          "type": "address"
        }
      ],
      "name": "addNewOwner",
      "outputs": [],
      "stateMutability": "nonpayable",
      "type": "function"
    },
    {
      "inputs": [
        {
          "internalType": "string",
          "name": "vin",
          "type": "string"
        },
        {
          "internalType": "uint256",
          "name": "mileage",
          "type": "uint256"
        },
        {
          "internalType": "string[]",
          "name": "serviceWorks",
          "type": "string[]"
        }
      ],
      "name": "addServiceHistory",
      "outputs": [],
      "stateMutability": "nonpayable",
      "type": "function"
    },
    {
      "inputs": [
        {
          "internalType": "address",
          "name": "trafficPolice",
          "type": "address"
        }
      ],
      "name": "addTrafficPolice",
      "outputs": [],
      "stateMutability": "nonpayable",
      "type": "function"
    },
    {
      "inputs": [
        {
          "internalType": "string",
          "name": "vin",
          "type": "string"
        },
        {
          "internalType": "string",
          "name": "newPlateNumber",
          "type": "string"
        }
      ],
      "name": "changePlate",
      "outputs": [],
      "stateMutability": "nonpayable",
      "type": "function"
    },
    {
      "inputs": [
        {
          "internalType": "uint256",
          "name": "",
          "type": "uint256"
        }
      ],
      "name": "dealersList",
      "outputs": [
        {
          "internalType": "address",
          "name": "",
          "type": "address"
        }
      ],
      "stateMutability": "view",
      "type": "function"
    },
    {
      "inputs": [
        {
          "internalType": "string",
          "name": "vin",
          "type": "string"
        }
      ],
      "name": "getCarInfo",
      "outputs": [
        {
          "components": [
            {
              "internalType": "string",
              "name": "brand",
              "type": "string"
            },
            {
              "internalType": "string",
              "name": "model",
              "type": "string"
            },
            {
              "internalType": "uint256",
              "name": "year",
              "type": "uint256"
            },
            {
              "internalType": "string",
              "name": "fuelType",
              "type": "string"
            },
            {
              "internalType": "string",
              "name": "transmissionType",
              "type": "string"
            },
            {
              "internalType": "string",
              "name": "color",
              "type": "string"
            },
            {
              "internalType": "string",
              "name": "configuration",
              "type": "string"
            },
            {
              "internalType": "string",
              "name": "country",
              "type": "string"
            },
            {
              "internalType": "string[]",
              "name": "plateNumbers",
              "type": "string[]"
            },
            {
              "internalType": "uint256",
              "name": "mileage",
              "type": "uint256"
            },
            {
              "internalType": "address[]",
              "name": "owners",
              "type": "address[]"
            },
            {
              "components": [
                {
                  "internalType": "uint256",
                  "name": "date",
                  "type": "uint256"
                },
                {
                  "internalType": "string",
                  "name": "description",
                  "type": "string"
                },
                {
                  "internalType": "uint256",
                  "name": "amount",
                  "type": "uint256"
                },
                {
                  "internalType": "bool",
                  "name": "paid",
                  "type": "bool"
                }
              ],
              "internalType": "struct CarInfo.Fine[]",
              "name": "fines",
              "type": "tuple[]"
            },
            {
              "components": [
                {
                  "internalType": "uint256",
                  "name": "date",
                  "type": "uint256"
                },
                {
                  "internalType": "uint256",
                  "name": "mileage",
                  "type": "uint256"
                },
                {
                  "internalType": "string[]",
                  "name": "works",
                  "type": "string[]"
                }
              ],
              "internalType": "struct CarInfo.ServiceWork[]",
              "name": "serviceHistory",
              "type": "tuple[]"
            },
            {
              "components": [
                {
                  "internalType": "uint256",
                  "name": "date",
                  "type": "uint256"
                },
                {
                  "internalType": "string",
                  "name": "description",
                  "type": "string"
                },
                {
                  "internalType": "string[]",
                  "name": "images",
                  "type": "string[]"
                }
              ],
              "internalType": "struct CarInfo.Accident[]",
              "name": "accidents",
              "type": "tuple[]"
            },
            {
              "components": [
                {
                  "internalType": "uint256",
                  "name": "date",
                  "type": "uint256"
                },
                {
                  "internalType": "bool",
                  "name": "isStolen",
                  "type": "bool"
                },
                {
                  "internalType": "string",
                  "name": "location",
                  "type": "string"
                }
              ],
              "internalType": "struct CarInfo.Theft[]",
              "name": "theftHistory",
              "type": "tuple[]"
            }
          ],
          "internalType": "struct CarInfo.Car",
          "name": "",
          "type": "tuple"
        }
      ],
      "stateMutability": "view",
      "type": "function"
    },
    {
      "inputs": [
        {
          "internalType": "uint256",
          "name": "",
          "type": "uint256"
        }
      ],
      "name": "insuranceCompaniesList",
      "outputs": [
        {
          "internalType": "address",
          "name": "",
          "type": "address"
        }
      ],
      "stateMutability": "view",
      "type": "function"
    },
    {
      "inputs": [
        {
          "internalType": "address",
          "name": "addr",
          "type": "address"
        }
      ],
      "name": "isAddressFromDealersList",
      "outputs": [
        {
          "internalType": "bool",
          "name": "",
          "type": "bool"
        }
      ],
      "stateMutability": "view",
      "type": "function"
    },
    {
      "inputs": [
        {
          "internalType": "address",
          "name": "addr",
          "type": "address"
        }
      ],
      "name": "isAddressFromInsuranceCompaniesList",
      "outputs": [
        {
          "internalType": "bool",
          "name": "",
          "type": "bool"
        }
      ],
      "stateMutability": "view",
      "type": "function"
    },
    {
      "inputs": [
        {
          "internalType": "address",
          "name": "addr",
          "type": "address"
        }
      ],
      "name": "isAddressFromTrafficPoliceList",
      "outputs": [
        {
          "internalType": "bool",
          "name": "",
          "type": "bool"
        }
      ],
      "stateMutability": "view",
      "type": "function"
    },
    {
      "inputs": [
        {
          "internalType": "string",
          "name": "vin",
          "type": "string"
        }
      ],
      "name": "isCarExists",
      "outputs": [
        {
          "internalType": "bool",
          "name": "",
          "type": "bool"
        }
      ],
      "stateMutability": "view",
      "type": "function"
    },
    {
      "inputs": [
        {
          "internalType": "string",
          "name": "vin",
          "type": "string"
        }
      ],
      "name": "isCarStolen",
      "outputs": [
        {
          "internalType": "bool",
          "name": "",
          "type": "bool"
        }
      ],
      "stateMutability": "view",
      "type": "function"
    },
    {
      "inputs": [
        {
          "internalType": "string",
          "name": "vin",
          "type": "string"
        },
        {
          "internalType": "uint256",
          "name": "fineIndex",
          "type": "uint256"
        }
      ],
      "name": "markAsPaid",
      "outputs": [],
      "stateMutability": "nonpayable",
      "type": "function"
    },
    {
      "inputs": [
        {
          "internalType": "string",
          "name": "vin",
          "type": "string"
        },
        {
          "internalType": "uint256",
          "name": "fineIndex",
          "type": "uint256"
        }
      ],
      "name": "payFine",
      "outputs": [],
      "stateMutability": "payable",
      "type": "function"
    },
    {
      "inputs": [
        {
          "internalType": "string",
          "name": "vin",
          "type": "string"
        },
        {
          "internalType": "string",
          "name": "location",
          "type": "string"
        }
      ],
      "name": "reportFound",
      "outputs": [],
      "stateMutability": "nonpayable",
      "type": "function"
    },
    {
      "inputs": [
        {
          "internalType": "string",
          "name": "vin",
          "type": "string"
        },
        {
          "internalType": "string",
          "name": "location",
          "type": "string"
        }
      ],
      "name": "reportStolen",
      "outputs": [],
      "stateMutability": "nonpayable",
      "type": "function"
    },
    {
      "inputs": [],
      "name": "state",
      "outputs": [
        {
          "internalType": "address payable",
          "name": "",
          "type": "address"
        }
      ],
      "stateMutability": "view",
      "type": "function"
    },
    {
      "inputs": [
        {
          "internalType": "uint256",
          "name": "",
          "type": "uint256"
        }
      ],
      "name": "trafficPoliceList",
      "outputs": [
        {
          "internalType": "address",
          "name": "",
          "type": "address"
        }
      ],
      "stateMutability": "view",
      "type": "function"
    }
  ],
  "bytecode": "0x608060405234801561001057600080fd5b5060008054336001600160a01b0319918216811783556001805480820182557fb10e2d527612073b26eecdfd717e6a320cf44b4afac2b0732d9fcbe2b7fa0cf6018054841683179055600280548083019091557f405787fa12a823e0f2b7631cc41b3ba8828b3321ca811111fa75cd3aa3bb5ace01805484168317905560038054918201815584527fc2575a0e9e593c00f959f8c92f12db2869c3395a3b0502d05e2516446f71f85b018054909216179055613bb39081906100d290396000f3fe60806040526004361061014b5760003560e01c8063a08e3e41116100b6578063bed439bd1161006f578063bed439bd14610457578063bfbd30b214610484578063c19d93fb146104a4578063d2fd9210146104c4578063d9198c92146104e4578063f0661a641461050457600080fd5b8063a08e3e41146102f2578063ac26d44614610312578063aed22c8514610332578063b5f5652814610352578063b620285714610417578063ba7985261461043757600080fd5b806357e6eff61161010857806357e6eff6146102225780636a7a55561461024257806375ad0c5c146102725780637d7ddf6714610292578063884e00df146102b257806391904ff8146102d257600080fd5b806306c3f7f21461015057806306d6cb761461018d578063179173c6146101af57806327da2a21146101cf5780633fca8a0c146101e25780635682a04e14610202575b600080fd5b34801561015c57600080fd5b5061017061016b366004612be7565b610524565b6040516001600160a01b0390911681526020015b60405180910390f35b34801561019957600080fd5b506101ad6101a8366004612c1c565b61054e565b005b3480156101bb57600080fd5b506101ad6101ca366004612cf3565b610605565b6101ad6101dd366004612d56565b6108e0565b3480156101ee57600080fd5b506101ad6101fd366004612e4c565b610add565b34801561020e57600080fd5b5061017061021d366004612be7565b610d04565b34801561022e57600080fd5b506101ad61023d366004612cf3565b610d14565b34801561024e57600080fd5b5061026261025d366004612ed3565b610edf565b6040519015158152602001610184565b34801561027e57600080fd5b506101ad61028d366004612f0f565b610fd7565b34801561029e57600080fd5b506101ad6102ad36600461306a565b6111dc565b3480156102be57600080fd5b506102626102cd366004612c1c565b611491565b3480156102de57600080fd5b506101ad6102ed366004612cf3565b6114fd565b3480156102fe57600080fd5b5061026261030d366004612c1c565b6116c8565b34801561031e57600080fd5b5061026261032d366004612c1c565b61172c565b34801561033e57600080fd5b506101ad61034d366004612c1c565b611790565b34801561035e57600080fd5b5060008054336001600160a01b0319918216811783556001805480820182557fb10e2d527612073b26eecdfd717e6a320cf44b4afac2b0732d9fcbe2b7fa0cf6018054841683179055600280548083019091557f405787fa12a823e0f2b7631cc41b3ba8828b3321ca811111fa75cd3aa3bb5ace0180548416831790556003805491820181559093527fc2575a0e9e593c00f959f8c92f12db2869c3395a3b0502d05e2516446f71f85b90920180549091169091179055005b34801561042357600080fd5b50610262610432366004612ed3565b611838565b34801561044357600080fd5b506101ad610452366004613147565b6118ac565b34801561046357600080fd5b50610477610472366004612ed3565b611ace565b6040516101849190613444565b34801561049057600080fd5b5061017061049f366004612be7565b61264f565b3480156104b057600080fd5b50600054610170906001600160a01b031681565b3480156104d057600080fd5b506101ad6104df366004612d56565b61265f565b3480156104f057600080fd5b506101ad6104ff3660046135ee565b6127ad565b34801561051057600080fd5b506101ad61051f366004612c1c565b6129cd565b6001818154811061053457600080fd5b6000918252602090912001546001600160a01b0316905081565b6000546001600160a01b031633146105815760405162461bcd60e51b81526004016105789061363b565b60405180910390fd5b6001805480820182556000919091527fb10e2d527612073b26eecdfd717e6a320cf44b4afac2b0732d9fcbe2b7fa0cf60180546001600160a01b0319166001600160a01b0383169081179091556040519081527f98f3b9743e04ddffc992c14d8217e2d0467e51bbec660a88b2c756e6eebc4e64906020015b60405180910390a150565b610669600380548060200260200160405190810160405280929190818152602001828054801561065e57602002820191906000526020600020905b81546001600160a01b03168152600190910190602001808311610640575b505050505033612a75565b6106855760405162461bcd60e51b815260040161057890613681565b81600060048260405161069891906136cb565b908152604051908190036020019020600a0154116106c85760405162461bcd60e51b8152600401610578906136e7565b60008251116107195760405162461bcd60e51b815260206004820152601c60248201527f506c617465206e756d6265722063616e6e6f7420626520656d707479000000006044820152606401610578565b60048360405161072991906136cb565b90815260405190819003602001902060080154600003610863578160405160200161075491906136cb565b6040516020818303038152906040528051906020012060048460405161077a91906136cb565b9081526020016040518091039020600801600160048660405161079d91906136cb565b908152604051908190036020019020600801546107ba9190613732565b815481106107ca576107ca613745565b906000526020600020016040516020016107e4919061378f565b60405160208183030381529060405280519060200120036108635760405162461bcd60e51b815260206004820152603360248201527f4e657720706c617465206e756d626572206d75737420626520646966666572656044820152726e742066726f6d20746865206f6c64206f6e6560681b6064820152608401610578565b60048360405161087391906136cb565b9081526040516020918190038201902060080180546001810182556000918252919020016108a18382613854565b507fb0b8d69552c13337173fe252d122aaade330aa03392809926814feb887c1304583836040516108d3929190613913565b60405180910390a1505050565b8160006004826040516108f391906136cb565b908152604051908190036020019020600a0154116109235760405162461bcd60e51b8152600401610578906136e7565b60048360405161093391906136cb565b9081526020016040518091039020600b01828154811061095557610955613745565b600091825260209091206003600490920201015460ff16156109b05760405162461bcd60e51b8152602060048201526014602482015273119a5b99481a5cc8185b1c9958591e481c185a5960621b6044820152606401610578565b6004836040516109c091906136cb565b9081526020016040518091039020600b0182815481106109e2576109e2613745565b9060005260206000209060040201600201543414610a505760405162461bcd60e51b815260206004820152602560248201527f596f75206d757374207061792074686520657861637420616d6f756e74206f666044820152642066696e6560d81b6064820152608401610578565b6001600484604051610a6291906136cb565b9081526020016040518091039020600b018381548110610a8457610a84613745565b906000526020600020906004020160030160006101000a81548160ff0219169083151502179055507fadfb6559168451e721d191976caf5a897c0e0e8057819f67efa8ec08a857988a83836040516108d3929190613941565b610b3f600280548060200260200160405190810160405280929190818152602001828054801561065e576020028201919060005260206000209081546001600160a01b0316815260019091019060200180831161064057505050505033612a75565b610ba15760405162461bcd60e51b815260206004820152602d60248201527f4f6e6c7920696e737572616e636520636f6d70616e792063616e2063616c6c2060448201526c3a3434b990333ab731ba34b7b760991b6064820152608401610578565b826000600482604051610bb491906136cb565b908152604051908190036020019020600a015411610be45760405162461bcd60e51b8152600401610578906136e7565b6000835111610c355760405162461bcd60e51b815260206004820152601b60248201527f4465736372697074696f6e2063616e6e6f7420626520656d70747900000000006044820152606401610578565b60408051606081018252428152602081018590528082018490529051600490610c5f9087906136cb565b90815260405160209181900382019020600d01805460018082018355600092835291839020845160039092020190815591830151839291820190610ca39082613854565b5060408201518051610cbf916002840191602090910190612b22565b5050507f648861ce1b472f9ad4cf59ebb8bb04d368cf1f9906fc60bac6a1f03a5c81ea26858585604051610cf593929190613963565b60405180910390a15050505050565b6002818154811061053457600080fd5b610d76600380548060200260200160405190810160405280929190818152602001828054801561065e576020028201919060005260206000209081546001600160a01b0316815260019091019060200180831161064057505050505033612a75565b610d925760405162461bcd60e51b815260040161057890613681565b816000600482604051610da591906136cb565b908152604051908190036020019020600a015411610dd55760405162461bcd60e51b8152600401610578906136e7565b610dde83610edf565b610e2a5760405162461bcd60e51b815260206004820152601a60248201527f436172206973206e6f74207265706f727465642073746f6c656e0000000000006044820152606401610578565b600483604051610e3a91906136cb565b9081526040805191829003602090810183206060840183524284526000848301818152938501878152600e9092018054600181810183559183529390912085516003909402019283559251928201805493151560ff199094169390931790925590516002820190610eab9082613854565b5050507f04c9f87e663c97f3ab9ac9711955d3ac844bc0e604b9815a32842bebc0506cb283836040516108d3929190613913565b6000816000600482604051610ef491906136cb565b908152604051908190036020019020600a015411610f245760405162461bcd60e51b8152600401610578906136e7565b600483604051610f3491906136cb565b908152604051908190036020019020600e0154600003610f575760009150610fd1565b600483604051610f6791906136cb565b9081526020016040518091039020600e016001600485604051610f8a91906136cb565b908152604051908190036020019020600e0154610fa79190613732565b81548110610fb757610fb7613745565b600091825260209091206001600390920201015460ff1691505b50919050565b611039600180548060200260200160405190810160405280929190818152602001828054801561065e576020028201919060005260206000209081546001600160a01b0316815260019091019060200180831161064057505050505033612a75565b6110555760405162461bcd60e51b81526004016105789061399c565b60048a60405161106591906136cb565b908152604051908190036020019020600a0154156110c55760405162461bcd60e51b815260206004820181905260248201527f436172207769746820746869732056494e20616c7265616479206578697374736044820152606401610578565b600060048b6040516110d791906136cb565b9081526040519081900360200190209050806110f38b82613854565b50600181016111028a82613854565b5060028101889055600381016111188882613854565b50600481016111278782613854565b50600581016111368682613854565b50600681016111458582613854565b50600781016111548482613854565b50600a81018054600181018255600091825260209091200180546001600160a01b0319166001600160a01b0384161790556040517f6bf30c75ca20c5984aa0099612441b63be270fffacb9a56320bc8f499a5cdb8a906111c7908d908d908d908d908d908d908d908d908d908d906139de565b60405180910390a15050505050505050505050565b61123e600380548060200260200160405190810160405280929190818152602001828054801561065e576020028201919060005260206000209081546001600160a01b0316815260019091019060200180831161064057505050505033612a75565b61125a5760405162461bcd60e51b815260040161057890613681565b82600060048260405161126d91906136cb565b908152604051908190036020019020600a01541161129d5760405162461bcd60e51b8152600401610578906136e7565b81518351146113025760405162461bcd60e51b815260206004820152602b60248201527f46696e65206465736372697074696f6e7320616e6420616d6f756e7473206d7560448201526a1cdd08189948195c5d585b60aa1b6064820152608401610578565b60005b835181101561144f57600084828151811061132257611322613745565b6020026020010151511161136f5760405162461bcd60e51b815260206004820152601460248201527346696e652063616e6e6f7420626520656d70747960601b6044820152606401610578565b60048560405161137f91906136cb565b9081526020016040518091039020600b0160405180608001604052804281526020018684815181106113b3576113b3613745565b602002602001015181526020018584815181106113d2576113d2613745565b6020908102919091018101518252600091810182905283546001818101865594835291819020835160049093020191825582015191929091908201906114189082613854565b50604082015160028201556060909101516003909101805460ff19169115159190911790558061144781613aa6565b915050611305565b507f36b0649033c8770649511bb4a8253e433f7bdfeac1c783a296e1cfcdc41f7e8d84848460405161148393929190613abf565b60405180910390a150505050565b60006114f760038054806020026020016040519081016040528092919081815260200182805480156114ec57602002820191906000526020600020905b81546001600160a01b031681526001909101906020018083116114ce575b505050505083612a75565b92915050565b61155f600380548060200260200160405190810160405280929190818152602001828054801561065e576020028201919060005260206000209081546001600160a01b0316815260019091019060200180831161064057505050505033612a75565b61157b5760405162461bcd60e51b815260040161057890613681565b81600060048260405161158e91906136cb565b908152604051908190036020019020600a0154116115be5760405162461bcd60e51b8152600401610578906136e7565b6115c783610edf565b156116145760405162461bcd60e51b815260206004820152601e60248201527f43617220697320616c7265616479207265706f727465642073746f6c656e00006044820152606401610578565b60048360405161162491906136cb565b9081526040805191829003602090810183206060840183524284526001848301818152938501878152600e90920180548083018255600091825293902085516003909402019283559251928201805493151560ff1990941693909317909255905160028201906116949082613854565b5050507fe46555fcb4399c724a0462ab2db9a5baadddd9b5c5f28e32927853c09d2c692183836040516108d3929190613913565b60006114f760018054806020026020016040519081016040528092919081815260200182805480156114ec576020028201919060005260206000209081546001600160a01b031681526001909101906020018083116114ce57505050505083612a75565b60006114f760028054806020026020016040519081016040528092919081815260200182805480156114ec576020028201919060005260206000209081546001600160a01b031681526001909101906020018083116114ce57505050505083612a75565b6000546001600160a01b031633146117ba5760405162461bcd60e51b81526004016105789061363b565b600280546001810182556000919091527f405787fa12a823e0f2b7631cc41b3ba8828b3321ca811111fa75cd3aa3bb5ace0180546001600160a01b0319166001600160a01b0383169081179091556040519081527f764eab19189128bc621923fc04d93a7fa85cdc401d2d2815858f3d3db6e5fd59906020016105fa565b6000808251116118805760405162461bcd60e51b815260206004820152601360248201527256494e2063616e6e6f7420626520656d70747960681b6044820152606401610578565b600060048360405161189291906136cb565b908152604051908190036020019020600a01541192915050565b61190e600180548060200260200160405190810160405280929190818152602001828054801561065e576020028201919060005260206000209081546001600160a01b0316815260019091019060200180831161064057505050505033612a75565b61192a5760405162461bcd60e51b81526004016105789061399c565b82600060048260405161193d91906136cb565b908152604051908190036020019020600a01541161196d5760405162461bcd60e51b8152600401610578906136e7565b8260048560405161197e91906136cb565b908152602001604051809103902060090154106119ee5760405162461bcd60e51b815260206004820152602860248201527f4e6577206d696c65616765206d7573742062652067726561746572207468616e604482015267206f6c64206f6e6560c01b6064820152608401610578565b826004856040516119ff91906136cb565b90815260200160405180910390206009018190555060006040518060600160405280428152602001858152602001848152509050600485604051611a4391906136cb565b9081526040805160209281900383019020600c01805460018082018355600092835291849020855160039092020190815584840151918101919091559083015180518493611a98926002850192910190612b22565b5050507faa8c42b4f8178bb5821d08838f0a8a14c25947eae2656a033810be9aec1a5305858585604051610cf593929190613b28565b611b47604051806101e001604052806060815260200160608152602001600081526020016060815260200160608152602001606081526020016060815260200160608152602001606081526020016000815260200160608152602001606081526020016060815260200160608152602001606081525090565b816000600482604051611b5a91906136cb565b908152604051908190036020019020600a015411611b8a5760405162461bcd60e51b8152600401610578906136e7565b600483604051611b9a91906136cb565b9081526020016040518091039020604051806101e0016040529081600082018054611bc49061375b565b80601f0160208091040260200160405190810160405280929190818152602001828054611bf09061375b565b8015611c3d5780601f10611c1257610100808354040283529160200191611c3d565b820191906000526020600020905b815481529060010190602001808311611c2057829003601f168201915b50505050508152602001600182018054611c569061375b565b80601f0160208091040260200160405190810160405280929190818152602001828054611c829061375b565b8015611ccf5780601f10611ca457610100808354040283529160200191611ccf565b820191906000526020600020905b815481529060010190602001808311611cb257829003601f168201915b5050505050815260200160028201548152602001600382018054611cf29061375b565b80601f0160208091040260200160405190810160405280929190818152602001828054611d1e9061375b565b8015611d6b5780601f10611d4057610100808354040283529160200191611d6b565b820191906000526020600020905b815481529060010190602001808311611d4e57829003601f168201915b50505050508152602001600482018054611d849061375b565b80601f0160208091040260200160405190810160405280929190818152602001828054611db09061375b565b8015611dfd5780601f10611dd257610100808354040283529160200191611dfd565b820191906000526020600020905b815481529060010190602001808311611de057829003601f168201915b50505050508152602001600582018054611e169061375b565b80601f0160208091040260200160405190810160405280929190818152602001828054611e429061375b565b8015611e8f5780601f10611e6457610100808354040283529160200191611e8f565b820191906000526020600020905b815481529060010190602001808311611e7257829003601f168201915b50505050508152602001600682018054611ea89061375b565b80601f0160208091040260200160405190810160405280929190818152602001828054611ed49061375b565b8015611f215780601f10611ef657610100808354040283529160200191611f21565b820191906000526020600020905b815481529060010190602001808311611f0457829003601f168201915b50505050508152602001600782018054611f3a9061375b565b80601f0160208091040260200160405190810160405280929190818152602001828054611f669061375b565b8015611fb35780601f10611f8857610100808354040283529160200191611fb3565b820191906000526020600020905b815481529060010190602001808311611f9657829003601f168201915b5050505050815260200160088201805480602002602001604051908101604052809291908181526020016000905b8282101561208d5783829060005260206000200180546120009061375b565b80601f016020809104026020016040519081016040528092919081815260200182805461202c9061375b565b80156120795780601f1061204e57610100808354040283529160200191612079565b820191906000526020600020905b81548152906001019060200180831161205c57829003601f168201915b505050505081526020019060010190611fe1565b50505050815260200160098201548152602001600a82018054806020026020016040519081016040528092919081815260200182805480156120f857602002820191906000526020600020905b81546001600160a01b031681526001909101906020018083116120da575b50505050508152602001600b8201805480602002602001604051908101604052809291908181526020016000905b828210156122135783829060005260206000209060040201604051806080016040529081600082015481526020016001820180546121639061375b565b80601f016020809104026020016040519081016040528092919081815260200182805461218f9061375b565b80156121dc5780601f106121b1576101008083540402835291602001916121dc565b820191906000526020600020905b8154815290600101906020018083116121bf57829003601f168201915b5050509183525050600282015460208083019190915260039092015460ff1615156040909101529082526001929092019101612126565b505050508152602001600c8201805480602002602001604051908101604052809291908181526020016000905b8282101561235f5783829060005260206000209060030201604051806060016040529081600082015481526020016001820154815260200160028201805480602002602001604051908101604052809291908181526020016000905b828210156123485783829060005260206000200180546122bb9061375b565b80601f01602080910402602001604051908101604052809291908181526020018280546122e79061375b565b80156123345780601f1061230957610100808354040283529160200191612334565b820191906000526020600020905b81548152906001019060200180831161231757829003601f168201915b50505050508152602001906001019061229c565b505050508152505081526020019060010190612240565b505050508152602001600d8201805480602002602001604051908101604052809291908181526020016000905b828210156125335783829060005260206000209060030201604051806060016040529081600082015481526020016001820180546123c99061375b565b80601f01602080910402602001604051908101604052809291908181526020018280546123f59061375b565b80156124425780601f1061241757610100808354040283529160200191612442565b820191906000526020600020905b81548152906001019060200180831161242557829003601f168201915b5050505050815260200160028201805480602002602001604051908101604052809291908181526020016000905b8282101561251c57838290600052602060002001805461248f9061375b565b80601f01602080910402602001604051908101604052809291908181526020018280546124bb9061375b565b80156125085780601f106124dd57610100808354040283529160200191612508565b820191906000526020600020905b8154815290600101906020018083116124eb57829003601f168201915b505050505081526020019060010190612470565b50505050815250508152602001906001019061238c565b505050508152602001600e8201805480602002602001604051908101604052809291908181526020016000905b82821015612640576000848152602090819020604080516060810182526003860290920180548352600181015460ff16151593830193909352600283018054929392918401916125af9061375b565b80601f01602080910402602001604051908101604052809291908181526020018280546125db9061375b565b80156126285780601f106125fd57610100808354040283529160200191612628565b820191906000526020600020905b81548152906001019060200180831161260b57829003601f168201915b50505050508152505081526020019060010190612560565b50505091525090949350505050565b6003818154811061053457600080fd5b6126c1600380548060200260200160405190810160405280929190818152602001828054801561065e576020028201919060005260206000209081546001600160a01b0316815260019091019060200180831161064057505050505033612a75565b6126dd5760405162461bcd60e51b815260040161057890613681565b8160006004826040516126f091906136cb565b908152604051908190036020019020600a0154116127205760405162461bcd60e51b8152600401610578906136e7565b60048360405161273091906136cb565b9081526020016040518091039020600b01828154811061275257612752613745565b600091825260209091206003600490920201015460ff1615610a505760405162461bcd60e51b8152602060048201526014602482015273119a5b99481a5cc8185b1c9958591e481c185a5960621b6044820152606401610578565b61280f600380548060200260200160405190810160405280929190818152602001828054801561065e576020028201919060005260206000209081546001600160a01b0316815260019091019060200180831161064057505050505033612a75565b61282b5760405162461bcd60e51b815260040161057890613681565b81600060048260405161283e91906136cb565b908152604051908190036020019020600a01541161286e5760405162461bcd60e51b8152600401610578906136e7565b816001600160a01b031660048460405161288891906136cb565b9081526020016040518091039020600a0160016004866040516128ab91906136cb565b908152604051908190036020019020600a01546128c89190613732565b815481106128d8576128d8613745565b6000918252602090912001546001600160a01b03160361294f5760405162461bcd60e51b815260206004820152602c60248201527f4e6577206f776e6572206d75737420626520646966666572656e742066726f6d60448201526b20746865206f6c64206f6e6560a01b6064820152608401610578565b60048360405161295f91906136cb565b90815260405160209181900382018120600a018054600181018255600091825292902090910180546001600160a01b0319166001600160a01b0385161790557ff541a6fc5b574d93915702f6e074dbd9028a4d9e2d8f537ed358b2d9e87c618a906108d39085908590613b53565b6000546001600160a01b031633146129f75760405162461bcd60e51b81526004016105789061363b565b600380546001810182556000919091527fc2575a0e9e593c00f959f8c92f12db2869c3395a3b0502d05e2516446f71f85b0180546001600160a01b0319166001600160a01b0383169081179091556040519081527fec92f699a94eed37aee06c2a34a212ed6ad617208e93fdc318283fea06a61ed7906020016105fa565b600080835111612abe5760405162461bcd60e51b81526020600482015260146024820152734c6973742063616e6e6f7420626520656d70747960601b6044820152606401610578565b60005b8351811015612b1857826001600160a01b0316848281518110612ae657612ae6613745565b60200260200101516001600160a01b031603612b065760019150506114f7565b80612b1081613aa6565b915050612ac1565b5060009392505050565b828054828255906000526020600020908101928215612b68579160200282015b82811115612b685782518290612b589082613854565b5091602001919060010190612b42565b50612b74929150612b78565b5090565b80821115612b74576000612b8c8282612b95565b50600101612b78565b508054612ba19061375b565b6000825580601f10612bb1575050565b601f016020900490600052602060002090810190612bcf9190612bd2565b50565b5b80821115612b745760008155600101612bd3565b600060208284031215612bf957600080fd5b5035919050565b80356001600160a01b0381168114612c1757600080fd5b919050565b600060208284031215612c2e57600080fd5b612c3782612c00565b9392505050565b634e487b7160e01b600052604160045260246000fd5b604051601f8201601f191681016001600160401b0381118282101715612c7c57612c7c612c3e565b604052919050565b600082601f830112612c9557600080fd5b81356001600160401b03811115612cae57612cae612c3e565b612cc1601f8201601f1916602001612c54565b818152846020838601011115612cd657600080fd5b816020850160208301376000918101602001919091529392505050565b60008060408385031215612d0657600080fd5b82356001600160401b0380821115612d1d57600080fd5b612d2986838701612c84565b93506020850135915080821115612d3f57600080fd5b50612d4c85828601612c84565b9150509250929050565b60008060408385031215612d6957600080fd5b82356001600160401b03811115612d7f57600080fd5b612d8b85828601612c84565b95602094909401359450505050565b60006001600160401b03821115612db357612db3612c3e565b5060051b60200190565b600082601f830112612dce57600080fd5b81356020612de3612dde83612d9a565b612c54565b82815260059290921b84018101918181019086841115612e0257600080fd5b8286015b84811015612e415780356001600160401b03811115612e255760008081fd5b612e338986838b0101612c84565b845250918301918301612e06565b509695505050505050565b600080600060608486031215612e6157600080fd5b83356001600160401b0380821115612e7857600080fd5b612e8487838801612c84565b94506020860135915080821115612e9a57600080fd5b612ea687838801612c84565b93506040860135915080821115612ebc57600080fd5b50612ec986828701612dbd565b9150509250925092565b600060208284031215612ee557600080fd5b81356001600160401b03811115612efb57600080fd5b612f0784828501612c84565b949350505050565b6000806000806000806000806000806101408b8d031215612f2f57600080fd5b8a356001600160401b0380821115612f4657600080fd5b612f528e838f01612c84565b9b5060208d0135915080821115612f6857600080fd5b612f748e838f01612c84565b9a5060408d0135915080821115612f8a57600080fd5b612f968e838f01612c84565b995060608d0135985060808d0135915080821115612fb357600080fd5b612fbf8e838f01612c84565b975060a08d0135915080821115612fd557600080fd5b612fe18e838f01612c84565b965060c08d0135915080821115612ff757600080fd5b6130038e838f01612c84565b955060e08d013591508082111561301957600080fd5b6130258e838f01612c84565b94506101008d013591508082111561303c57600080fd5b506130498d828e01612c84565b9250506130596101208c01612c00565b90509295989b9194979a5092959850565b60008060006060848603121561307f57600080fd5b83356001600160401b038082111561309657600080fd5b6130a287838801612c84565b94506020915081860135818111156130b957600080fd5b6130c588828901612dbd565b9450506040860135818111156130da57600080fd5b86019050601f810187136130ed57600080fd5b80356130fb612dde82612d9a565b81815260059190911b8201830190838101908983111561311a57600080fd5b928401925b828410156131385783358252928401929084019061311f565b80955050505050509250925092565b60008060006060848603121561315c57600080fd5b83356001600160401b038082111561317357600080fd5b61317f87838801612c84565b9450602086013593506040860135915080821115612ebc57600080fd5b60005b838110156131b757818101518382015260200161319f565b50506000910152565b600081518084526131d881602086016020860161319c565b601f01601f19169290920160200192915050565b600081518084526020808501808196508360051b8101915082860160005b858110156132345782840389526132228483516131c0565b9885019893509084019060010161320a565b5091979650505050505050565b600081518084526020808501945080840160005b8381101561327a5781516001600160a01b031687529582019590820190600101613255565b509495945050505050565b600081518084526020808501808196508360051b8101915082860160005b8581101561323457828403895281516080815186528682015181888801526132cd828801826131c0565b6040848101519089015260609384015115159390970192909252505097840197908401906001016132a3565b600081518084526020808501808196508360051b8101915082860160005b85811015613234578284038952815180518552858101518686015260409081015160609186018290529061334d818701836131ec565b9a87019a9550505090840190600101613317565b600081518084526020808501808196508360051b8101915082860160005b8581101561323457828403895281516060815186528682015181888801526133a9828801826131c0565b915050604080830151925086820381880152506133c681836131ec565b9a87019a955050509084019060010161337f565b600081518084526020808501808196508360051b8101915082860160005b8581101561323457828403895281518051855285810151151586860152604090810151606091860182905290613430818701836131c0565b9a87019a95505050908401906001016133f8565b60208152600082516101e08060208501526134636102008501836131c0565b91506020850151601f198086850301604087015261348184836131c0565b93506040870151606087015260608701519150808685030160808701526134a884836131c0565b935060808701519150808685030160a08701526134c584836131c0565b935060a08701519150808685030160c08701526134e284836131c0565b935060c08701519150808685030160e08701526134ff84836131c0565b935060e0870151915061010081878603018188015261351e85846131c0565b94508088015192505061012081878603018188015261353d85846131ec565b94508088015192505061014082818801528088015192505061016081878603018188015261356b8584613241565b94508088015192505061018081878603018188015261358a8584613285565b9450808801519250506101a08187860301818801526135a985846132f9565b9450808801519250506101c08187860301818801526135c88584613361565b9088015187820390920184880152935090506135e483826133da565b9695505050505050565b6000806040838503121561360157600080fd5b82356001600160401b0381111561361757600080fd5b61362385828601612c84565b92505061363260208401612c00565b90509250929050565b60208082526026908201527f4f6e6c7920676f7665726e6d656e742063616e2063616c6c20746869732066756040820152653731ba34b7b760d11b606082015260800190565b6020808252602a908201527f4f6e6c79207472616666696320706f6c6963652063616e2063616c6c207468696040820152693990333ab731ba34b7b760b11b606082015260800190565b600082516136dd81846020870161319c565b9190910192915050565b6020808252818101527f436172207769746820746869732056494e20646f6573206e6f74206578697374604082015260600190565b634e487b7160e01b600052601160045260246000fd5b818103818111156114f7576114f761371c565b634e487b7160e01b600052603260045260246000fd5b600181811c9082168061376f57607f821691505b602082108103610fd157634e487b7160e01b600052602260045260246000fd5b600080835461379d8161375b565b600182811680156137b557600181146137ca576137f9565b60ff19841687528215158302870194506137f9565b8760005260208060002060005b858110156137f05781548a8201529084019082016137d7565b50505082870194505b50929695505050505050565b601f82111561384f57600081815260208120601f850160051c8101602086101561382c5750805b601f850160051c820191505b8181101561384b57828155600101613838565b5050505b505050565b81516001600160401b0381111561386d5761386d612c3e565b6138818161387b845461375b565b84613805565b602080601f8311600181146138b6576000841561389e5750858301515b600019600386901b1c1916600185901b17855561384b565b600085815260208120601f198616915b828110156138e5578886015182559484019460019091019084016138c6565b50858210156139035787850151600019600388901b60f8161c191681555b5050505050600190811b01905550565b60408152600061392660408301856131c0565b828103602084015261393881856131c0565b95945050505050565b60408152600061395460408301856131c0565b90508260208301529392505050565b60608152600061397660608301866131c0565b828103602084015261398881866131c0565b905082810360408401526135e481856131ec565b60208082526022908201527f4f6e6c79206465616c65722063616e2063616c6c20746869732066756e63746960408201526137b760f11b606082015260800190565b60006101408083526139f28184018e6131c0565b90508281036020840152613a06818d6131c0565b90508281036040840152613a1a818c6131c0565b90508960608401528281036080840152613a34818a6131c0565b905082810360a0840152613a4881896131c0565b905082810360c0840152613a5c81886131c0565b905082810360e0840152613a7081876131c0565b9050828103610100840152613a8581866131c0565b91505060018060a01b0383166101208301529b9a5050505050505050505050565b600060018201613ab857613ab861371c565b5060010190565b606081526000613ad260608301866131c0565b602083820381850152613ae582876131ec565b8481036040860152855180825282870193509082019060005b81811015613b1a57845183529383019391830191600101613afe565b509098975050505050505050565b606081526000613b3b60608301866131c0565b84602084015282810360408401526135e481856131ec565b604081526000613b6660408301856131c0565b905060018060a01b0383166020830152939250505056fea2646970667358221220ffa3cb1527ce71ecef46f95594b070fc492f4b29f2c30f9b2ace05305e516f8764736f6c63430008140033",
  "linkReferences": {},
  "deployedLinkReferences": {}
}